:100000000C94DC050C9400230C9431230C94622393
:100010000C9493230C94C4230C94F5230C94262461
:100020000C9457240C940B060C940B060C940B06A2
:100030000C945A0D0C940B060C940B060C94B60DF4
:100040000C940B060C940B060C940B060C940B06EC
:100050000C940B060C940B060C940B060C94910D4F
:100060000C940B060C94ED1E0C940B060C940B06D2
:100070000C940B060C940B060C940B060C940B06BC
:100080000C940B060C940B060C940B060C940B06AC
:100090000C94281F0C940B060C940B060C94D02186
:1000A0000C940B060C940B060C940B060C940B068C
:1000B0000C940B060C940B060C940B060C940B067C
:1000C0000C940B060C940B060C940B06312E20534B
:1000D0007769746368204F4E204F4B00312E2053B8
:1000E0007769746368204F4E206572726F72203D8D
:1000F0002000322E204465766963652045554920ED
:10010000736574204F4B00322E2044657669636519
:100110002045554920736574206572726F72203DC9
:100120002000332E204170706C69636174696F6EBA
:100130002045554920736574204F4B00332E2041D4
:1001400070706C69636174696F6E204555492073E6
:100150006574206572726F72203D2000342E20413C
:1001600070706C69636174696F6E204B6579207380
:100170006574204F4B00342E204170706C696361B0
:1001800074696F6E204B6579207365742065727297
:100190006F72203D2000352E205361766520636FFD
:1001A0006E66696775726174696F6E204F4B0035BA
:1001B0002E205361766520636F6E66696775726184
:1001C00074696F6E206572726F72203D20009A0212
:1001D000A602B902C902D702E602F9020E031D0304
:1001E00028033403410356036A037E039303A803E1
:1001F000BC03D003E003F1030A04240442045C04BA
:100200006E047F0490049D04AC04BD04CB04DE04A2
:10021000ED04FC040D052205390551056805750539
:1002200083059105A005B305C805DB05ED050106AD
:1002300018062F06430658066B067D069106A30690
:10024000B306C406D406E306F40608071707270713
:100250003607460756076807760788079707A807EF
:10026000BC07CC07E007F007000815082A0840087B
:100270004C084F085D0868086F087B0882088B08E7
:100280009608A008A308A708B208BC08BF08CA08B7
:10029000D208E308F108FC0803097379732072653A
:1002A0007365740D0A0073797320666163746F72ED
:1002B0007952455345540D0A00737973206765746C
:1002C0002068776575690D0A007379732067657416
:1002D000207664640D0A006D616320726573657435
:1002E0002025730D0A006D616320747820636E66AB
:1002F0002025752025730D0A006D61632074782018
:10030000756E636E662025752025730D0A006D617C
:1003100063206A6F696E206162700D0A006D61630F
:1003200020736176650D0A006D61632070617573DD
:10033000650D0A006D616320726573756D650D0A48
:10034000006D616320736574206465766164647216
:100350002025730D0A006D61632073657420646548
:10036000766575692025730D0A006D6163207365DC
:1003700074206170706575692025730D0A006D61C8
:100380006320736574206E776B736B6579202573BA
:100390000D0A006D61632073657420617070736B6A
:1003A00065792025730D0A006D61632073657420E3
:1003B0006170706B65792025730D0A006D61632093
:1003C000736574207077726964782025750D0A0052
:1003D0006D6163207365742064722025750D0A00B9
:1003E0006D616320736574206164722025730D0A4A
:1003F000006D6163207365742063682066726571A7
:1004000020257520256C750D0A006D6163207365CC
:100410007420636820646379636C652025752025EA
:10042000750D0A006D616320736574206368206434
:100430007272616E67652025752025752025750D02
:100440000A006D61632073657420636820737461B2
:100450007475732025752025730D0A006D61632066
:1004600067657420646576616464720D0A006D616D
:100470006320676574206465766575690D0A006D93
:10048000616320676574206170706575690D0A008D
:100490006D6163206765742064720D0A006D61638D
:1004A000206765742062616E640D0A006D616320CF
:1004B000676574207077726964780D0A006D6163F6
:1004C00020676574206164720D0A006D61632067A6
:1004D000657420646379636C6570730D0A006D61E7
:1004E0006320676574206D72676E0D0A006D61632D
:1004F000206765742067776E620D0A006D61632066
:10050000676574207374617475730D0A006D61639F
:100510002067657420636820667265712025750DFB
:100520000A006D61632067657420636820646379E5
:10053000636C652025750D0A006D61632067657425
:1005400020636820647272616E67652025750D0AEC
:10055000006D616320676574206368207374617443
:1005600075732025750D0A00726164696F207278B9
:1005700020300D0A00726164696F20747820257341
:100580000D0A00726164696F206377206F6E0D0A37
:1005900000726164696F206377206F66660D0A00E0
:1005A000726164696F20736574206D6F64202573B8
:1005B0000D0A00726164696F20736574206672654C
:1005C0007120256C750D0A00726164696F20736576
:1005D00074207077722025690D0A00726164696F5A
:1005E000207365742073662025730D0A00726164A0
:1005F000696F2073657420727862772025730D0A05
:1006000000726164696F207365742072786277206C
:1006100025732E25730D0A00726164696F2073655E
:100620007420626974726174652025750D0A007208
:100630006164696F20736574206664657620257532
:100640000D0A00726164696F207365742070726CAA
:10065000656E2025750D0A00726164696F207365EF
:1006600074206372632025730D0A00726164696FE0
:10067000207365742063722025730D0A0072616413
:10068000696F207365742077647420256C750D0A7A
:1006900000726164696F207365742062772025752C
:1006A0000D0A00726164696F20676574206D6F6464
:1006B0000D0A00726164696F206765742066726557
:1006C000710D0A00726164696F206765742070772C
:1006D000720D0A00726164696F2067657420736629
:1006E0000D0A00726164696F206765742072786218
:1006F000770D0A00726164696F2067657420626912
:1007000074726174650D0A00726164696F206765B7
:10071000742063720D0A00726164696F20676574EA
:10072000207764740D0A00726164696F20676574D4
:100730002062770D0A00726164696F20676574201A
:10074000736E720D0A00726164696F2067657420B0
:100750006372630D0A00726164696F2067657420BB
:1007600070726C656E0D0A00737973206765742072
:100770007665720D0A006D61632073657420726581
:1007800074782025750D0A006D61632067657420FB
:10079000726574780D0A00726164696F2067657410
:1007A00020666465760D0A006D61632073657420B0
:1007B000757063747220256C750D0A006D6163207D
:1007C0006765742075706374720D0A006D61632033
:1007D00073657420646E63747220256C750D0A0055
:1007E0006D61632067657420646E6374720D0A0026
:1007F0006D6163206A6F696E206F7461610D0A001C
:100800006D616320736574206C696E6B63686B2027
:1008100025750D0A006D616320736574207278324E
:1008200020257520256C750D0A006D6163207365A8
:100830007420727864656C6179312025750D0A0029
:100840006D61632072657365740D0A006F6B0069DA
:100850006E76616C69645F706172616D006E6F5F6E
:10086000667265655F6368006D61635F72780072D0
:100870006164696F5F74785F6F6B00524E32343819
:100880003300616363657074656400726164696FED
:100890005F72782020006D61635F74785F6F6B001A
:1008A0006F6E006F6666006D61635F706175736582
:1008B0006400726164696F5F657272000D0A0034D2
:1008C000323934393637323435006D61635F6572E1
:1008D0007200696E76616C69645F646174615F6CFB
:1008E000656E006B6579735F6E6F745F696E6974B6
:1008F000006E6F745F6A6F696E65640064656E692F
:10090000656400524E3239303300320946096C09B1
:100910009309B309CB09D909E909FE09140A250A83
:10092000310A380A550A730A890A970AA70ACA0AB5
:10093000D00A416C61726D204D6F6465206D6174E9
:100940006368657320005B446179203A20686F75A5
:100950007273203A206D696E75746573203A207346
:1009600065636F6E64735D202D3E20005B4461748F
:1009700065203A20686F757273203A206D696E7534
:10098000746573203A207365636F6E64735D202D08
:100990003E20005B486F757273203A206D696E755A
:1009A000746573203A207365636F6E64735D202DE8
:1009B0003E20005B4D696E75746573203A20736547
:1009C000636F6E64735D202D3E20005B5365636F23
:1009D0006E64735D202D3E20004F6E636520706550
:1009E00072207365636F6E6400496E636F72726527
:1009F000637420616C61726D206D6F6465005B25AE
:100A00003032753A253032753A253032753A253014
:100A100032755D005B253032753A253032753A25E6
:100A20003032755D005B253032753A253032755DA8
:100A3000005B253032755D005B446179203A2068A7
:100A40006F757273203A206D696E75746573205DE1
:100A5000202D3E20005B44617465203A20686F754C
:100A60007273203A206D696E75746573205D202D58
:100A70003E20005B486F757273203A206D696E7579
:100A80007465735D202D3E20005B4D696E75746545
:100A9000735D202D3E20004F6E63652070657220CF
:100AA0006D696E7574650025732C20253032752FA5
:100AB000253032752F253032752C20253032753A8D
:100AC000253032753A25303275006572726F7200CA
:100AD0002530327525632530327525632530327512
:100AE0002563253032752563253032752563253021
:100AF00032752563253032750000000809000000BA
:100B000000000000000000000000000000000000E5
:100B100000000000000000000000000000000000D5
:100B200000000000000000000000000001020810AA
:100B300010204080040810204002020408102040C9
:100B400080010280204004200101020408102001DD
:100B5000408040800102080408800410040201055E
:100B6000050505030303030101010404030606064A
:100B7000060606060601040501050103020202023B
:100B80000202010202050504040304040103040730
:100B9000070700202326292C2F32002225282B2E60
:100BA0003134002124272A2D3033320DA814811925
:100BB000831A0A1CDE1D1F2611241FBECFEFD1E2AF
:100BC000DEBFCDBF14E0A0E0B2E0E8EDF8E500E064
:100BD0000BBF02C007900D92AC31B107D9F711E1FC
:100BE000ACE1B4E001C01D92A930B107E1F71BE010
:100BF000C8EBDBE000E006C022970109FE010BBF55
:100C00000E944B28CA3AD10780E00807A9F70E9442
:100C100080120C946A2C0C94000060911F0480E2F6
:100C200094E00E94F50780931E04811107C06CECCC
:100C300070E08CE49AE00E94651A11C06CED70E0DF
:100C40008CE49AE00E94DD1940911E0450E060E0BF
:100C500070E02AE030E08CE49AE00E94051A6CE52E
:100C600072E080E294E00E94540880931E04811197
:100C700007C062EF70E08CE49AE00E94651A11C030
:100C800067E071E08CE49AE00E94DD1940911E0457
:100C900050E060E070E02AE030E08CE49AE00E94EE
:100CA000051A6BE472E080E294E00E9408098093E8
:100CB0001E04811107C062E271E08CE49AE00E9498
:100CC000651A11C06CE371E08CE49AE00E94DD19B2
:100CD00040911E0450E060E070E02AE030E08CE4D7
:100CE0009AE00E94051A6AE272E080E294E00E94B3
:100CF000BC0980931E04811107C06CE571E08CE48F
:100D00009AE00E94651A11C066E771E08CE49AE0EF
:100D10000E94DD1940911E0450E060E070E02AE07E
:100D200030E08CE49AE00E94051A80E294E00E9490
:100D3000700A80931E04811107C066E971E08CE49B
:100D40009AE00E94651A11C06FEA71E08CE49AE0A3
:100D50000E94DD1940911E0450E060E070E02AE03E
:100D600030E08CE49AE00E94051A80E294E00E9450
:100D7000F10A80931E048430E1F040F4813011F1D7
:100D800020F18230E1F0833031F516C0863059F021
:100D900068F0873029F08830F1F46EE672E017C011
:100DA00067E872E014C06EE972E011C064EB72E0B3
:100DB0000EC06DEC72E00BC06FEE72E008C065E033
:100DC00073E005C067E273E002C066E473E08CE4A0
:100DD0009AE00E94421A68E873E180E090E00E9485
:100DE0002D0E80911E048111C0CF6EE573E08CE45E
:100DF0009AE00C94421A4AE052E06091290280E2A3
:100E000094E00E94BE0B80931E048230B1F028F45F
:100E10008823C9F08130E9F413C0853041F0863071
:100E200019F08430B1F406C06AE673E00EC06FEBCF
:100E300072E00BC069E873E008C060E173E005C0D0
:100E400063EA73E002C061E573E08CE49AE00E941B
:100E5000421A8CE49AE00E94581A60E177E280E03E
:100E600090E00C942D0ECF93DF93EC0161110FC035
:100E7000188281E59AE00E94BE1ACE010E940810F5
:100E800061E086E10E94360F60E086E10BC081E000
:100E90008883CE010E94081061E086E00E94360F30
:100EA00060E086E00E944F0F80E0DF91CF910895CF
:100EB0004F925F926F927F928F929F92AF92BF926A
:100EC000CF92DF92EF92FF920F931F93CF93DF9316
:100ED000CDB7DEB7AD970FB6F894DEBF0FBECDBF6E
:100EE0005C012C0120EF421A2DEF520A8AEFF20129
:100EF00011928A95E9F74E01FFE18F0E911C8FE068
:100F0000F401282F11922A95E9F73E0130E1630E92
:100F1000711CF301282F11922A95E9F78E010F5FBA
:100F20001F4FF80111928A95E9F7E6E5F2E0859105
:100F300094919F938F935F924F920E946A29EAE760
:100F4000F2E0859194919F938F939F928F920E944C
:100F50006A29E8E9F2E0859194919F938F937F92BB
:100F60006F920E946A29E2E7F2E0859194919F9343
:100F70008F931F930F930E946A29F8EECF2EF3E010
:100F8000DF2EE12CF12C9301A401B201C5010E94D6
:100F900057110FB6F894DEBF0FBECDBF813009F4F4
:100FA00002C0823031F4F501E357FA4F808380E0CC
:100FB00005C0833011F481E001C082E0AD960FB628
:100FC000F894DEBF0FBECDBFDF91CF911F910F917F
:100FD000FF90EF90DF90CF90BF90AF909F908F9059
:100FE0007F906F905F904F9008951F93CF93DF9302
:100FF000EC01162F40E051EE60E070E049835A8327
:101000006B837C831883612F0E94330768EC70E048
:1010100080E090E00E942D0E11110FC0188281E532
:101020009AE00E94CE1ACE010E94DB0F61E086E1B9
:101030000E94360F61E086E129C087E20E94950F89
:101040000197A9F48091CC0981110DC089EB99E039
:101050000E94661989EB99E00E94501989EB99E08A
:101060000E94EE1404C089EB99E00E94501981E0BF
:10107000888381E59AE00E94A61ACE010E94DB0FC8
:1010800061E086E00E94360F61E086E00E944F0F2B
:101090006CE271E080E090E00E942D0ECE01DF91C5
:1010A000CF911F910C9458074F925F926F927F924D
:1010B0008F929F92AF92BF92CF92DF92EF92FF9268
:1010C0000F931F93CF93DF93CDB7DEB76E970FB615
:1010D000F894DEBF0FBECDBF5C013B016C0120EF79
:1010E000C21A2DEFD20A8AEFD6011D928A95E9F72E
:1010F000FE0170968FE0DF01282F1D922A95E9F7F7
:10110000FE013196DF011D928A95E9F7FB01DB01B3
:101110000D900020E9F75197A617B70709F05EC0B8
:1011200080E09191292F20532A3038F02151263028
:1011300020F09156963008F051C08F5F803189F7CA
:10114000E6EEF1E0859194917F926F929F938F9359
:10115000DF92CF920E946A29E0E7F2E085919491B4
:101160009F938F934E01B0E18B0E911C9F928F92B3
:101170000E946A29E2E7F2E0859194919F938F9310
:1011800044244394512C4C0E5D1E5F924F920E945A
:101190006A2914E6E12EF12C00E010E09201A4018E
:1011A000B601C5010E946E110FB6F894DEBF0FBEE6
:1011B000CDBF813079F4C501845E9C4F21E1DC0113
:1011C0001D922A95E9F741E150E0B3010E94EF2812
:1011D00080E007C0823021F481E003C087E001C0D5
:1011E00082E06E960FB6F894DEBF0FBECDBFDF91E2
:1011F000CF911F910F91FF90EF90DF90CF90BF9014
:10120000AF909F908F907F906F905F904F900895D8
:101210004F925F926F927F928F929F92AF92BF9206
:10122000CF92DF92EF92FF920F931F93CF93DF93B2
:10123000CDB7DEB76E970FB6F894DEBF0FBECDBF49
:101240005C013B016C0120EFC21A2DEFD20A8AEF3C
:10125000D6011D928A95E9F7FE0170968FE0DF01B5
:10126000282F1D922A95E9F7FE013196DF011D9284
:101270008A95E9F7FB01DB010D900020E9F7519712
:10128000A617B70709F05EC080E09191292F20537F
:101290002A3038F02151263020F09156963008F04F
:1012A00051C08F5F803189F7E8EEF1E0859194912C
:1012B0007F926F929F938F93DF92CF920E946A29C1
:1012C000E0E7F2E0859194919F938F934E01B0E116
:1012D0008B0E911C9F928F920E946A29E2E7F2E0A6
:1012E000859194919F938F9344244394512C4C0E59
:1012F0005D1E5F924F920E946A2914E6E12EF12C46
:1013000000E010E09201A401B601C5010E946E1137
:101310000FB6F894DEBF0FBECDBF813079F4C501A2
:10132000835D9C4F21E1DC011D922A95E9F741E1A3
:1013300050E0B3010E94EF2880E007C0823021F422
:1013400081E003C087E001C082E06E960FB6F8949A
:10135000DEBF0FBECDBFDF91CF911F910F91FF90E8
:10136000EF90DF90CF90BF90AF909F908F907F9045
:101370006F905F904F9008954F925F926F927F921F
:101380008F929F92AF92BF92CF92DF92EF92FF9295
:101390000F931F93CF93DF93CDB7DEB76E970FB642
:1013A000F894DEBF0FBECDBF5C013B016C0120EFA6
:1013B000C21A2DEFD20A8AEFD6011D928A95E9F75B
:1013C000FE0170968FE0DF01282F1D922A95E9F724
:1013D000FE013196DF011D928A95E9F7FB01DB01E1
:1013E0000D900020E9F79197A617B70709F05EC0A6
:1013F00080E09191292F20532A3038F02151263056
:1014000020F09156963008F051C08F5F803289F7F6
:10141000EEEEF1E0859194917F926F929F938F937E
:10142000DF92CF920E946A29E0E7F2E085919491E1
:101430009F938F934E01B0E18B0E911C9F928F92E0
:101440000E946A29E2E7F2E0859194919F938F933D
:1014500044244394512C4C0E5D1E5F924F920E9487
:101460006A2914E6E12EF12C00E010E09201A401BB
:10147000B601C5010E946E110FB6F894DEBF0FBE13
:10148000CDBF813079F4C50180589C4F21E2DC0149
:101490001D922A95E9F741E250E0B3010E94EF283E
:1014A00080E007C0823021F481E003C087E001C002
:1014B00082E06E960FB6F894DEBF0FBECDBFDF910F
:1014C000CF911F910F91FF90EF90DF90CF90BF9041
:1014D000AF909F908F907F906F905F904F90089506
:1014E0006F927F928F929F92AF92BF92CF92DF9234
:1014F000EF92FF920F931F93CF93DF93CDB7DEB799
:101500006E970FB6F894DEBF0FBECDBF3C016C01E5
:1015100020EFC21A2DEFD20A8AEFF60111928A95B6
:10152000E9F75E01F0E1AF0EB11C8FE0F501282F65
:1015300011922A95E9F788248394912C8C0E9D1E94
:10154000F40111928A95E9F7EEEDF1E0859194911D
:101550009F938F93DF92CF920E946A29E0E7F2E097
:10156000859194919F938F93BF92AF920E946A2925
:10157000E2E7F2E0859194919F938F939F928F92EF
:101580000E946A2910EAE12E1FE0F12E00E010E02F
:101590009401A501B601C3010E946E110FB6F89423
:1015A000DEBF0FBECDBF813021F0823021F481E05B
:1015B00003C080E001C082E06E960FB6F894DEBFF3
:1015C0000FBECDBFDF91CF911F910F91FF90EF9094
:1015D000DF90CF90BF90AF909F908F907F906F9053
:1015E00008953F924F925F926F927F928F929F9257
:1015F000AF92BF92CF92DF92EF92FF920F931F9321
:10160000CF93DF93CDB7DEB7AD970FB6F894DEBFBB
:101610000FBECDBF3C012C0120EF421A2DEF520A24
:101620008AEFF20111928A95E9F75E01FFE1AF0EB0
:10163000B11CBFE03B2EF501232D11922A95E9F74D
:101640004E0130E1830E911CF401232D11922A9555
:10165000E9F78E010F5F1F4FF801232D11922A9594
:10166000E9F7E6E6F2E0859194919F938F935F927C
:101670004F920E946A29E0E7F2E0859194919F934E
:101680008F93BF92AF920E946A29E2E7F2E08591C0
:1016900094919F938F939F928F920E946A29E2E97F
:1016A000F2E0859194919F938F931F930F930E94E3
:1016B0006A2984EFC82EDD24D394E12CF12C940107
:1016C000A501B201C3010E9457110FB6F894DEBF05
:1016D0000FBECDBF813081F5F501232D11922A95E2
:1016E000E9F7ECE7F2E0859194919F938F93BF9295
:1016F000AF920E946A29F40111923A94E9F7E6E95F
:10170000F2E0859194919F938F939F928F920E9484
:101710006A2900E21EE420E030E0A401B501C30123
:101720000E94541291E00FB6F894DEBF0FBECDBFF9
:10173000813059F490E009C0823021F0833021F4E7
:1017400093E003C091E001C092E0892FAD960FB6FF
:10175000F894DEBF0FBECDBFDF91CF911F910F91E7
:10176000FF90EF90DF90CF90BF90AF909F908F90C1
:101770007F906F905F904F903F9008952F923F928F
:101780004F925F926F927F928F929F92AF92BF9291
:10179000CF92DF92EF92FF920F931F93CF93DF933D
:1017A000CDB7DEB7C055D1090FB6F894DEBF0FBE76
:1017B000CDBF5C01FC01EB57FA4F10821C0120EFFA
:1017C000221A2DEF320A8AEFD1011D928A95E9F78C
:1017D000FE01FD9684E1DF01282F1D922A95E9F78D
:1017E000FE01B996DF01282F1D922A95E9F7FE0127
:1017F0007596DF011D928A95E9F7603E08F017C1E2
:10180000FA0101900020E9F73197E41BF50B20E085
:1018100010C0DA01A80FB91F8C91982F90539A30FD
:1018200038F09151963020F08156863008F0FFC094
:101830002F5F822F90E08E179F0758F3E8EDF1E0BD
:10184000859194915F934F931F926F939F938F9382
:101850003F922F920E946A29E0E7F2E085919491ED
:101860009F938F932E01BDE34B0E511C5F924F92BD
:101870000E946A29E2E7F2E0859194919F938F9309
:101880004E01E9E28E0E911C9F928F920E946A296E
:10189000E4E9F2E0859194919F938F933E01F5E105
:1018A0006F0E711C7F926F920E946A2928EEC22EE1
:1018B00023E0D22EE12CF12C83019401A201B1018D
:1018C000C5010E9457110FB6F894DEBF0FBECDBF01
:1018D000813009F09EC084E1D201E82F1D92EA9583
:1018E000E9F7D401E82F1D92EA95E9F7D301E82F33
:1018F0001D92EA95E9F78E010F5F1F4FD8011D92E7
:101900008A95E9F7E6E7F2E0859194919F938F93AA
:101910005F924F920E946A29E0E8F2E085919491EB
:10192000BC01C4010E94CC28EEE8F2E085919491BC
:10193000BC01C3010E94CC28E0E9F2E085919491BA
:10194000BC01C8010E94CC2890E2C92E9EE4D92E89
:10195000E12CF12C9301A401B201C5010E94871171
:10196000182F0F900F900F900F908130E9F524EF12
:1019700031E040E050E068ED73E0C5010E9469127B
:10198000F501E25FFD4F20813181232B41F167EDAD
:1019900073E0C5010E960E94D3280E94AE28F5017F
:1019A000E15EFA4F808367ED73E080E090E00E9493
:1019B000D328BC01F501E05EFA4F85E6DF011D92F8
:1019C0008A95E9F744E650E0CF010E94EF28C5016F
:1019D0000E94700AF501EB57FA4F108303C0C5014E
:1019E0000E94700A80E024C08230C9F3833029F459
:1019F000C5010E94700A85E01BC0843029F4C5012E
:101A00000E94700A84E014C0C5010E94700A82E03E
:101A10000FC0823029F4C5010E94700A81E008C01D
:101A2000833091F7C5010E94700A86E001C087E00B
:101A3000C05BDF4F0FB6F894DEBF0FBECDBFDF91A6
:101A4000CF911F910F91FF90EF90DF90CF90BF90BB
:101A5000AF909F908F907F906F905F904F903F904E
:101A60002F90089580E092ECA1E0B0E080932104F3
:101A700090932204A0932304B093240488E893E174
:101A8000A0E0B0E08093250490932604A09327045F
:101A9000B093280484E690E0A0E0B0E080932904AD
:101AA00090932A04A0932B04B0932C0481E080939C
:101AB0002D0408951F920F920FB60F9211240BB6AA
:101AC0000F922F933F934F935F936F937F938F93D7
:101AD0009F93AF93BF93EF93FF93F89481E080932C
:101AE0006D02E0E6F0E080818068808380818F7BFA
:101AF000808360E083E00E944F0F7894FF91EF9124
:101B0000BF91AF919F918F917F916F915F914F9115
:101B10003F912F910F900BBE0F900FBE0F901F9013
:101B200018951F920F920FB60F9211248F939F93C7
:101B3000AF93BF938091EF0C9091F00CA091F10CBA
:101B4000B091F20C0196A11DB11D8093EF0C909302
:101B5000F00CA093F10CB093F20CBF91AF919F9158
:101B60008F910F900FBE0F901F9018951F920F929C
:101B70000FB60F9211248F939F93AF93BF938091D1
:101B8000F30C9091F40CA091F50CB091F60C019629
:101B9000A11DB11D8093F30C9093F40CA093F50C50
:101BA000B093F60CBF91AF919F918F910F900FBEA4
:101BB0000F901F9018958F929F92AF92BF92CF92E5
:101BC000DF92EF92FF920F931F93CF93DF932FB784
:101BD000F8948091EF0C9091F00CA091F10CB091E1
:101BE000F20C2FBF9C01AD0160E070E080E090E05E
:101BF00001E00E9433284901D42FC52FB62FA72F0B
:101C0000F82FE92F02E00E94332859016A017B0175
:101C10008C0194014D2F5C2F6B2F7A2F8F2F9E2FCD
:101C20000E944228E9E0AE2EB12CC12CD12CE12C2F
:101C3000F12C00E010E00E94D627952FB901842FE7
:101C4000DF91CF911F910F91FF90EF90DF90CF9098
:101C5000BF90AF909F908F9008958F929F92AF9278
:101C6000BF92CF92DF92EF92FF924B015C0107C0CF
:101C70000E94DB0D6C157D058E059F0520F40E94EA
:101C8000DB0D6B017C010E94DB0D6C197D098E0957
:101C90009F09681579058A059B0550F3FF90EF9021
:101CA000DF90CF90BF90AF909F908F900895BC0130
:101CB000049768F080E090E00E945E2626E636E613
:101CC00046EE5FE30E94EC260E94322602C0660FB9
:101CD000771F6150710961F06150710949F0FB0192
:101CE000EE0FFF1F31978FB7F8943197F1F78FBF41
:101CF0000895789484B7877F84BF1092EF0C109278
:101D0000F00C1092F10C1092F20C84B5826084BD3C
:101D100084B5816084BD85B5826085BD85B58160EF
:101D200085BDEEE6F0E0808181608083E1E8F0E04F
:101D3000808182608083808181608083E0E8F0E040
:101D4000808181608083E1EBF0E08081846080832A
:101D5000E1E9F0E0808184608083E0EBF0E0808165
:101D600081608083E0E9F0E0808181608083E4E647
:101D7000F0E080818E7F8083ECE7F0E080818F77D8
:101D80008083808180648083EAE7F0E080818460E2
:101D900080838081826080838081806880831092CC
:101DA000C1001092C90008959091AE09982B9093AC
:101DB000AE0980FF32C0809164008E7F8093640002
:101DC00080917C008F7780937C0080917C00806480
:101DD00080937C0080917A00846080937A00809167
:101DE0007A00826080937A0080917A008068809384
:101DF0007A00809164008F77809364008091640002
:101E00008B7F80936400809164008D7F8093640059
:101E1000809165008E7F809365000895282F20951E
:101E20009091AE0992239093AE0980FF1EC08091DD
:101E30007A008F7780937A0080916400816080932C
:101E400064008091640080688093640080916400E5
:101E50008460809364008091640082608093640059
:101E600080916500816080936500089590E0FC0199
:101E7000E45DF44F2491FC01E15AF44FE491EE2328
:101E800069F0F0E0EE55F44FA491B0E08C9161114F
:101E900003C02095822301C0822B8C93089590E08B
:101EA000FC01E750F54F2491FC01E45DF44F3491BF
:101EB000FC01E15AF44F84918823B1F1222331F1DE
:101EC000233021F4909180009F7705C0243031F4B5
:101ED000909180009F7D9093800018C0213019F46C
:101EE00094B59F7704C0223021F494B59F7D94BDB2
:101EF0000DC0263021F49091B0009F7705C02730A7
:101F000029F49091B0009F7D9093B000E82FF0E00D
:101F1000E656F44FA491B0E08C91611103C0309566
:101F2000832301C0832B8C93089590E0FC01E7503C
:101F3000F54F2491FC01E45DF44F3491FC01E15A2A
:101F4000F44F8491882399F1222331F1233021F435
:101F5000909180009F7705C0243031F490918000EB
:101F60009F7D9093800018C0213019F494B59F771D
:101F700004C0223021F494B59F7D94BD0DC026305D
:101F800021F49091B0009F7705C0273029F49091FB
:101F9000B0009F7D9093B000E82FF0E0EE56F44F34
:101FA000E491F0E08081832321E030E011F420E02F
:101FB00030E0C9010895CF93DF93EC0169817A8104
:101FC0008B819C8148810E94E21D888181110AC019
:101FD0008091F7109091F810A091F910B091FA103B
:101FE00084600BC0813089F48091F7109091F810D3
:101FF000A091F910B091FA1088608093F710909337
:10200000F810A093F910B093FA10DF91CF910895D2
:10201000CF93DF93EC0188810E94561E8881811145
:102020000AC08091F7109091F810A091F910B0912A
:10203000FA108B7F0BC0813089F48091F71090915A
:10204000F810A091F910B091FA10877F8093F710E3
:102050009093F810A093F910B093FA10DF91CF91FC
:102060000895AF92BF92CF92DF92EF92FF920F93BB
:102070001F93CF93DF9300D0CDB7DEB77B01D9019B
:102080000D900020E9F75D0181E0A81AB108A21ABD
:10209000B30A4A155B05C0F000E010E06A01CA18F7
:1020A000DB080FC0A501B901C701800F911F29836B
:1020B0003A830E94D72829813A81009739F00F5F2F
:1020C0001F4FC016D10670F780E001C081E00F906D
:1020D0000F90DF91CF911F910F91FF90EF90DF90C4
:1020E000CF90BF90AF9008952F923F924F925F9202
:1020F0006F927F928F929F92AF92BF92CF92DF9218
:10210000EF92FF920F931F93CF93DF93CDB7DEB77C
:102110002A970FB6F894DEBF0FBECDBF9A87898786
:102120004B0158874F8319011C830B83FE82ED827C
:10213000FC018585882319F080810E94D91EE985DC
:10214000FA856081C4010E94701FE985FA85618566
:102150007285838594850E942D0E89849A84FEE081
:102160008F0E911C80E092E0F4019C0111922150AD
:102170003040E1F709851A85025F1D4FF801118291
:1021800010820E94DB0D2B013C01E12CF12C1A8303
:1021900009835FC0E985FA8580810E94841E892BAE
:1021A000C9F0FFEFEF16F1E0FF06A0F4E985FA852C
:1021B00080810E94A01EE985FA85EE0DFF1D8687AD
:1021C000FFEFEF1AFF0AE981FA8180819181019680
:1021D00091838083E981FA81008111812F81388583
:1021E000A801B40189859A850E94311081113FC0F0
:1021F0002114310449F09101A801B40189859A851F
:102200000E943110811135C02B813C81211531058F
:1022100041F0A801B40189859A850E94311081118D
:102220002AC08D819E81009749F09C01A801B401CC
:1022300089859A850E94311081111FC00E94DB0D93
:10224000641575058605970520F40E94DB0D2B01AA
:102250003C010E94DB0D64197509860997096A150E
:102260007B058C059D0508F495CF80E007C081E0D3
:1022700005C082E003C083E001C084E02A960FB667
:10228000F894DEBF0FBECDBFDF91CF911F910F91AC
:10229000FF90EF90DF90CF90BF90AF909F908F9086
:1022A0007F906F905F904F903F902F900895AF92E6
:1022B000BF92CF92DF92EF92FF920F931F9356013E
:1022C0006701E12CF12C0E9474101F910F91FF9077
:1022D000EF90DF90CF90BF90AF900895AF92BF92F4
:1022E000CF92DF92EF92FF920F931F9357016801F5
:1022F000E12CF12C00E010E00E9474101F910F916E
:10230000FF90EF90DF90CF90BF90AF9008952F9205
:102310003F924F925F926F927F928F929F92AF9275
:10232000BF92CF92DF92EF92FF920F931F93CF93C2
:10233000DF93CDB7DEB72A970FB6F894DEBF0FBE96
:10234000CDBF9A87898778876F835C834B83190118
:102350001E830D838C01025F1F4F80E092E0F80125
:102360009C01119221503040E1F749845A8432EFA8
:10237000431A3DEF530AF201118210820E94DB0DD5
:102380004B015C01612C712C5A8249825FC0E98546
:10239000FA8580810E94841E892BC9F0FFEF6F1699
:1023A000F1E07F06A0F4E985FA8580810E94A01EF5
:1023B000E985FA85E60DF71D8687FFEF6F1A7F0A1C
:1023C000E981FA8180819181019691838083E981FD
:1023D000FA81408051802F813885A201B80189851A
:1023E0009A850E94311081113FC02B813C812115BB
:1023F000310541F0A201B80189859A850E9431100A
:10240000811134C02114310449F09101A201B801B5
:1024100089859A850E94311081112AC08D819E8103
:10242000009749F09C01A201B80189859A850E9414
:10243000311081111FC00E94DB0D681579058A05D6
:102440009B0520F40E94DB0D4B015C010E94DB0D1B
:10245000681979098A099B096C157D058E059F0508
:1024600008F495CF80E007C081E005C082E003C09A
:1024700083E001C084E02A960FB6F894DEBF0FBE59
:10248000CDBFDF91CF911F910F91FF90EF90DF9023
:10249000CF90BF90AF909F908F907F906F905F9004
:1024A0004F903F902F900895CF92DF92EF92FF923E
:1024B0000F931F936801790100E010E020E030E005
:1024C0000E9487111F910F91FF90EF90DF90CF90A6
:1024D0000895CF92DF92EF92FF920F931F936901BD
:1024E0007A0100E010E020E030E040E050E00E949F
:1024F00087111F910F91FF90EF90DF90CF9008957B
:102500000E94790E81E59AE00E94021C853440F019
:1025100061E081E30E94360F61E081E30E944F0F8A
:1025200061E070E081E59AE00E94DE1A8130B1F44A
:102530008091F7109091F810A091F910B091FA10D5
:1025400090688093F7109093F810A093F910B093CF
:10255000FA1060E081E090E00E94AC2B87E20E94DC
:10256000950F892B59F160E070E081E59AE00E94B7
:10257000DE1A8A3019F5C1C06CE3629FA001639F27
:10258000500D1124840F951F0EC02115310559F0EF
:102590006CE3629FA001639F500D11249A01205F9C
:1025A000314F820F931F039748F480910611909149
:1025B00007118062909307118093061189EB99E0CF
:1025C0000E94661989EB99E00E94271989EB99E02E
:1025D0000E94361989EB99E00E94EE1463E070E0E6
:1025E00080E090E00E942D0E8091F7109091F810FD
:1025F000A091F910B091FA10A1FF5EC063E070E005
:1026000080E090E00E942D0E61E086E10E94360F8E
:1026100063E070E080E090E00E942D0E61E086E1D2
:102620000E944F0F63E070E080E090E00E942D0E6A
:102630000E949C1363E070E080E090E00E942D0E09
:1026400081E00E94BF1363E070E080E090E00E94B0
:102650002D0E84E00E94CD1363E070E080E090E0F6
:102660000E942D0E80E00E94C81363E070E080E0BD
:1026700090E00E942D0E0E94BB1363E070E080E0AA
:1026800090E00E942D0E66E083EB99E00E94D81343
:1026900063E070E080E090E00E942D0E61E086E152
:1026A0000E94360F60E086E10E944F0F63E070E009
:1026B00080E090E00E942D0E63E070E080E090E00A
:1026C0000E942D0E81E59AE00E94DC1B6093AF0909
:1026D0007093B0098093B1099093B2098091AF09CA
:1026E0009091B009A091B109B091B2090E94A328BC
:1026F0000E940D060E94FB06FDCF89EB99E00E9427
:10270000661989EB99E00E94B81789EB99E00E945D
:10271000AD178091D20990E02091D409821B9109D4
:102720002091D10930E04091D509241B31091216BE
:1027300013060CF421CF29CF61E08EE10E94360F01
:1027400061E08FE10E94360F61E08DE10E94360F5B
:1027500060E08EE10E944F0F60E08FE10E944F0F1A
:1027600061E08DE10E944F0F8CB580618CBD8CB50E
:1027700080648CBD08958CB58F7B8CBD08958111CC
:1027800003C08CB5806202C08CB58F7D8CBD08956E
:102790009CB5937F982B9CBD08952CB5982F937072
:1027A0002C7F922B9CBD9DB580FB90F99DBD08951B
:1027B000CF93C62F61E08DE10E94360F61E082E287
:1027C0000E94360F61E08DE10E944F0F61E082E2CE
:1027D0000E944F0F8091F7109091F810A091F9107E
:1027E000B091FA10A2FF08C061E088E00E94360FA5
:1027F00061E088E00E944F0F8091F7109091F810EF
:10280000A091F910B091FA1096FF08C061E089E03C
:102810000E94360F61E089E00E944F0F8091F7100F
:102820009091F810A091F910B091FA10A3FF08C090
:1028300061E082E00E94360F61E082E00E944F0F6B
:102840008091F7109091F810A091F910B091FA10C2
:10285000A4FF08C061E082E20E94360F61E082E2DC
:102860000E944F0FC330C9F020F4C13061F070F402
:1028700007C0C53061F1F0F0C63009F067C033C061
:1028800060E08DE160C060E082E25DC081E59AE0D9
:102890000E94A61A60E08CE256C08091F7109091D9
:1028A000F810A091F910B091FA10A2FF4FC060E0AB
:1028B00088E049C08091F7109091F810A091F9102C
:1028C000B091FA1096FF42C060E089E03CC0809170
:1028D000F7109091F810A091F910B091FA10A3FFA1
:1028E00035C060E02FC061E08DE10E944F0F61E0D4
:1028F00082E20E944F0F8091F7109091F810A09102
:10290000F910B091FA10A2FF04C061E088E00E94C3
:102910004F0F8091F7109091F810A091F910B0919D
:10292000FA1096FF04C061E089E00E944F0F809189
:10293000F7109091F810A091F910B091FA10A3FF40
:1029400005C061E082E0CF910C944F0FCF910895C4
:102950001092B4091092B3091092B5091092B609F9
:102960001092B7091092B80908958091A70C882396
:1029700041F08091560A811104C08BE59AE00C94D5
:102980007C1C08950F931F93CF93DF93EC01042FCA
:1029900068A761E080E30E94360F18A5112379F043
:1029A000113091F461E080E30E944F0F013019F47F
:1029B00082E08B8B09C0011107C01B8B05C060E052
:1029C00080E30E944F0F1B8A6AE070E080E090E095
:1029D000DF91CF911F910F910C942D0ECF93DF9328
:1029E000EC010E94B51440E060E0CE01DF91CF9190
:1029F0000C94C214FC01148A158A168A178A108E48
:102A0000118E128E138E148E158E168E178E10A2A6
:102A100011A212A213A214A215A216A217A208951F
:102A2000EF92FF920F931F93CF93DF93CDB7DEB753
:102A3000EC970FB6F894DEBF0FBECDBF8C01ECE271
:102A4000F9E085919491BC01EE24E394F12CEC0E15
:102A5000FD1EC7010E94CC28EEE2F9E08591949119
:102A6000BC01CE0189960E94CC28F8018689843069
:102A700009F466C040F4823029F108F04BC081307F
:102A800009F0B6C009C0863009F486C008F46EC0EB
:102A9000873009F0ADC096C0F801818D1F928F93E9
:102AA000808D1F928F9387891F928F93828D1F92A3
:102AB0008F9385891F928F9384891F928F9386EEBF
:102AC00093E015C0F801818D1F928F93808D1F9226
:102AD0008F9387891F928F93828D1F928F93858901
:102AE0001F928F9384891F928F938AEE93E09F9316
:102AF0008F93FF92EF921F9284E68F93C80189967D
:102B00009F938F930E942D290FB6F894DEBF0FBEBE
:102B1000CDBF81C0F801818D1F928F93808D1F9250
:102B20008F9387891F928F93828D1F928F938589B0
:102B30001F928F9384891F928F938EEE93E0D7CF4D
:102B4000F801818D1F928F93808D1F928F938789BB
:102B50001F928F93828D1F928F9385891F928F93DF
:102B600084891F928F9382EF93E0C1CFF801818D0A
:102B70001F928F93808D1F928F9387891F928F93BF
:102B8000828D1F928F9385891F928F9384891F92C4
:102B90008F9386EF93E0ABCFF801818D1F928F93D7
:102BA000808D1F928F9387891F928F93828D1F92A2
:102BB0008F9385891F928F9384891F928F938AEFB9
:102BC00093E095CFF801818D1F928F93808D1F9296
:102BD0008F9387891F928F93828D1F928F93858900
:102BE0001F928F9384891F928F938EEF93E07FCFF4
:102BF000CE0189969F938F931F9284E68F93C8018D
:102C000089969F938F930E942D290F900F900F907C
:102C10000F900F900F90075D1F4FC801EC960FB6F5
:102C2000F894DEBF0FBECDBFDF91CF911F910F9102
:102C3000FF90EF900895CF92DF92EF92FF920F9363
:102C40001F93CF93DF938C01C62E8091A70C811127
:102C500004C081EA9CE00E94882468E670E081EA72
:102C60009CE00E94B52460E070E081EA9CE00E9454
:102C7000E12581EA9CE00E94E32543E150E068E61B
:102C800070E081EA9CE00E941D26E12CF12CC0E05E
:102C9000D0E0D12CE4C081EA9CE00E94BD24F80180
:102CA000EC0FFD1F8083C630D10509F467C098F48E
:102CB000C230D10509F43EC038F4209729F1C13063
:102CC000D10509F0C7C02BC0C430D10509F440C0FC
:102CD00008F049C03AC0CA30D10509F484C048F4AC
:102CE000282F30E0C830D10509F461C008F06DC06C
:102CF00050C0CC30D10509F492C008F482C0CD3068
:102D0000D10509F0A7C099C0982F92959F708F7038
:102D10002AE0929F800D1124F801818F9BC0982F8B
:102D200092959F708F70FAE09F9F800D1124F8019B
:102D3000808F90C0982F92959F708F70FAE09F9F20
:102D4000800D1124F801878B85C0F801868B82C025
:102D5000982F92959F708F70FAE09F9F800D11249D
:102D6000F801828F77C0982F92959F708F70FAE04C
:102D70009F9F800D1124F801858B6CC0982F929530
:102D80009F708F70FAE09F9F800D1124F801848B53
:102D900061C054E0359527955A95E1F727708F70FB
:102DA000FAE02F9F800D1124F801838F53C044E077
:102DB000359527954A95E1F727708F70FAE02F9F98
:102DC000800D1124F801848F45C094E03595279536
:102DD0009A95E1F723708F70FAE02F9F800D1124F0
:102DE000F801858F37C0282F2695269526952670C1
:102DF000922F990F990F920F8F70980FF801968F5D
:102E000029C0282F2695269526952E70922F990F4A
:102E1000990F920F8F70980FF801978F1BC0282F72
:102E20002695269526952670922F990F990F920F29
:102E30008F70980FF80190A30DC0282F2695269526
:102E400026952670922F990F990F920F8F70980FD9
:102E5000F80191A3219603C0FFEFEF1AFF0ACC16E9
:102E6000DD0658F02AE0E216F10438F481EA9CE02D
:102E70000E94B724882381F30ECFDF91CF911F9159
:102E80000F91FF90EF90DF90CF9008951F93CF9315
:102E9000DF93EC01162F8091A70C811104C081EA09
:102EA0009CE00E94882468E670E081EA9CE00E9431
:102EB000B524612F81EA9CE00E94B525C10FD11D88
:102EC000688181EA9CE00E94B52581EA9CE0DF915F
:102ED000CF911F910C94E325FF920F931F93CF93F3
:102EE000DF938C01F62E8091A70C811104C081EA3A
:102EF0009CE00E94882468E670E081EA9CE00E94E1
:102F0000B5246F2D81EA9CE00E94B52581EA9CE002
:102F10000E94E32541E050E068E670E081EA9CE031
:102F20000E941D26CBE0D0E081EA9CE00E94B724FD
:102F3000811102C02197C1F781EA9CE00E94BD2463
:102F4000F801EF0DF11D808381EA9CE0DF91CF91C4
:102F50001F910F91FF900C94E325CF93DF93EC0129
:102F600066E00E941B16CE01DF91CF910C941015E4
:102F7000CF92DF92EF92FF920F931F93CF93DF9345
:102F8000CDB7DEB7C857D1090FB6F894DEBF0FBE74
:102F9000CDBF7C016AE00E941B168701075D1F4FB1
:102FA00084E6F80111928A95E9F7EAE0F9E0859163
:102FB0009491BC01CE018F5A9F4F0E94CC28BE0134
:102FC0006F5A7F4FC8010E94E428F70182A1823026
:102FD00009F46AC030F4882369F0813009F00BC12C
:102FE00022C0843009F4C7C008F493C0853009F0CA
:102FF00002C1F0C0ECE0F9E085919491BC01CE01F2
:103000008F5A9F4F0E94CC28BE016F5A7F4FC80134
:103010000E94E428EAE1F9E0859194916E01F9E2D9
:10302000CF0ED11C18C0EEE0F9E085919491BC015F
:10303000CE018F5A9F4F0E94CC28BE016F5A7F4FFE
:10304000C8010E94E428EAE1F9E0859194916E01BB
:10305000E9E2CE0ED11CBC01C6010E94CC28F701CA
:10306000838D1F928F93848D1F928F93858D1F92D6
:103070008F93868D1F928F93DF92CF921F9288E25B
:103080008F93EE24E394F12CEC0EFD1EFF92EF9251
:103090000E942D29B701C8010E94E4280FB6F894B8
:1030A000DEBF0FBECDBFC2C0E0E1F9E085919491D3
:1030B000BC01CE018F5A9F4F0E94CC28BE016F5A8F
:1030C0007F4FC8010E94E428ECE1F9E085919491DA
:1030D0006E01E9E2CE0ED11CBC01C6010E94CC28D3
:1030E000F701838D1F928F93848D1F928F93858D0F
:1030F0001F928F93DF92CF921F9288E28F93EE24DC
:10310000E394F12CEC0EFD1EFF92EF920E942D290C
:10311000C1CFE2E1F9E085919491BC01CE018F5AD3
:103120009F4F0E94CC28BE016F5A7F4FC8010E945A
:10313000E428EEE1F9E0859194916E01E9E2CE0E8A
:10314000D11CBC01C6010E94CC28F701838D1F92BF
:103150008F93848D1F928F93DF92CF921F9288E27C
:103160008F93EE24E394F12CEC0EFD1EFF92EF9270
:103170000E942D298FCFE4E1F9E085919491BC0163
:10318000CE018F5A9F4F0E94CC28BE016F5A7F4FAD
:10319000C8010E94E428E0E2F9E0859194916E0173
:1031A000E9E2CE0ED11CBC01C6010E94CC28F70179
:1031B000838D1F928F93DF92CF921F9288E28F931D
:1031C000EE24E394F12CEC0EFD1EFF92EF920E9490
:1031D0002D2960CFE6E1F9E085919491BC01CE0103
:1031E0008F5A9F4F0E94CC28BE016F5A7F4FC80153
:1031F0000E94E4281BC0E8E1F9E0859194917E01EA
:10320000E1E5EE0EF11CBC01C7010E94CC28FF9243
:10321000EF921F9284E68F931F930F930E942D29A4
:103220000F900F900F900F900F900F90C801C858FB
:10323000DF4F0FB6F894DEBF0FBECDBFDF91CF9149
:103240001F910F91FF90EF90DF90CF900895CF9353
:10325000DF93EC016EE00E946C178E858E7F8E8767
:103260006EE0CE01DF91CF910C944617CF93DF93A0
:10327000EC016EE00E946C178E858D7F8E876EE06C
:10328000CE01DF91CF910C944617CF93DF93EC01E1
:103290006FE00E946C178F858370DF91CF91089546
:1032A000CF93DF93EC010E944519882319F0CE5685
:1032B000DF4F88838091C8098C7F8093C8096FE0B5
:1032C00089EB99E0DF91CF910C944617CF93DF9370
:1032D000EC0140E061E00E94C214CE010E9450194E
:1032E000CE010E94FA146DE0CE010E941B1661E02F
:1032F0008BE20E94360F60E08BE2DF91CF910C945D
:103300004F0F10924A0A1092CC090895DC01809167
:10331000C50011968C9311978091C40012968C93DE
:103320001297E2ECF0E0808113968C9313978091D2
:10333000CA0014968C93149780818F7D808380813E
:103340008F7E80838081877F80834C9160E072ECE8
:1033500081E090E00E94E21D61E087E10E944F0F52
:1033600060E08BE00C944F0FCF93DF93EC01409122
:10337000F7105091F8106091F9107091FA1063E015
:1033800070E080E090E042FF07C00E942D0E61E0F7
:103390008BE00E944F0F02C00E942D0E8981809306
:1033A000C5008A818093C4008B818093C2008C8188
:1033B0008093CA00DF91CF910895EF92FF920F930F
:1033C0001F93CF93DF938C01EB010E9486197E013E
:1033D00088E1E81A8CEFF80AFE012196849188238F
:1033E00039F0F80160810E94631FCE15DF05A1F757
:1033F000C8010E94B41960E070E0CB01DF91CF9169
:103400001F910F91FF90EF900895AF92BF92DF92BE
:10341000EF92FF920F931F93CF93DF93EC01142F42
:10342000D52E7B0159010E948619A114B10429F4FB
:103430006881812F0E94631F16C08AE0A816B1041C
:1034400039F44881612F7D2DC7010E940B200BC0EC
:103450009501442737FD4095542F0881612F7D2D1C
:10346000C7010E94801F88810E94651FCE01DF91E5
:10347000CF911F910F91FF90EF90DF90BF90AF9091
:103480000C94B4190F931F93CF93DF93EC018B012E
:103490000E9486196881C8010E94701F88810E945D
:1034A000651FCE01DF91CF911F910F910C94B4193C
:1034B000CF93DF93EC010E94861988810E94651FDB
:1034C000CE01DF91CF910C94B419EF92FF920F933C
:1034D0001F93CF93DF9300D0CDB7DEB77C010E945E
:1034E000DD198C01C70169837A830E94581A6981AA
:1034F0007A81C8010F900F90DF91CF911F910F91AA
:10350000FF90EF90089510924C0A08951F93CF9367
:10351000DF931F92CDB7DEB7162F61E0812F49836D
:103520000E94360F4981413011F461E003C041111E
:1035300008C060E0812F0F90DF91CF911F910C9414
:103540004F0F0F90DF91CF911F91089561E087E1B8
:103550000E94360F61E084E20E94360F61E085E24E
:103560000E94360F61E087E10E944F0F61E084E224
:103570000E944F0F61E085E20C944F0F61E087E1FC
:103580000E94360F61E08BE00E94360F61E087E118
:103590000E944F0F60E08BE00C944F0F61E087E1D9
:1035A0000E94360F61E08BE00E94360F61E087E1F8
:1035B0000E944F0F61E08BE00C944F0FCB010C94F5
:1035C0009E2B8F929F92AF92BF92CF92DF92EF92FB
:1035D000FF920F931F93CF93DF93CDB7DEB7C75FF3
:1035E000D1090FB6F894DEBF0FBECDBF8E010051DA
:1035F0001F4F580128E0A20EB11C7E0181E8E80EA1
:10360000F11CCC24C394D12CCC0EDD1E6DE0CE0178
:103610008F519F4F0E94A81D40E06CE081E59AE029
:103620000E94861A40E06DE081E59AE00E94861AC9
:10363000F801108211821282138261E08CE00E94F4
:10364000360F61E08CE00E944F0FCE018F519F4FEB
:103650000E94881C41E06DE081E59AE00E94861A94
:103660006AE070E080E090E00E942D0E40E063E3AD
:10367000CE018F519F4F0E94591D62E370E080E0A0
:1036800090E00E942D0E4701CE018F519F4F0E9466
:103690002E1DF2E08F1A9108F4018083118261E0FF
:1036A00070E080E090E00E942D0E8C149D0461F784
:1036B000FE017196D701C60180599F4F219131912A
:1036C0002D933D93E817F907C9F731EE832E912C1E
:1036D0008C0E9D1E81E090E0A0E0B0E0F4013291FC
:1036E00022914F012130310569F4F8014081518167
:1036F00062817381480F591F6A1F7B1F408351836A
:1037000062837383880F991FAA1FBB1F8E149F04A7
:1037100029F7F80180819181A281B3818F3F9F4F6A
:10372000AF4FBF4F29F4F801108211821282138229
:1037300060E08CE00E944F0F40E06CE081E59AE091
:103740000E94861A40E06DE081E59AE00E94861AA8
:103750000C5F1F4F0A151B0509F058CFC051DF4FF2
:10376000088119812A813B81C05FD040CC50DF4F56
:1037700088819981AA81BB81C45FD040081719074D
:103780002A073B0719F000E010E09801B801C901D1
:10379000C950DF4F0FB6F894DEBF0FBECDBFDF912B
:1037A000CF911F910F91FF90EF90DF90CF90BF903E
:1037B000AF909F908F900895CF92DF92EF92FF92FB
:1037C0000E94E11A6B017C0161157105810591056B
:1037D00091F483EE90E00E94A62B6A302AE07207F3
:1037E0008207920741F06F3F2FEF7207820792071F
:1037F00011F06B017C01B601C701FF90EF90DF90E3
:10380000CF9008958FED90E00E949E2B8F3F09F49A
:1038100080E008951092570A82E08093530A8CE169
:103820008093580A80EC91E090935A0A8093590A49
:1038300008951F93CF93DF931F92CDB7DEB7162F56
:1038400061E08AE149830E94360F61E088E10E94CD
:10385000360F4981112321F0113009F048C020C0F2
:1038600041110EC061E08AE10E944F0F8091F71074
:103870009091F810A091F910B091FA1082602FC0C9
:103880004130A9F560E08AE10E944F0F8091F71066
:103890009091F810A091F910B091FA108D7F1FC08F
:1038A00041110EC061E088E10E944F0F8091F71036
:1038B0009091F810A091F910B091FA1081600FC0AA
:1038C0004130A9F460E088E10E944F0F8091F71029
:1038D0009091F810A091F910B091FA108E7F80931A
:1038E000F7109093F810A093F910B093FA100F907E
:1038F000DF91CF911F91089561E089E20E94360F18
:1039000061E088E20E94360F81EA9CE00C94CE24AC
:10391000CF92DF92EF92FF921F93CF93DF93EC0150
:1039200060E08E850E94360F0E94DB0D6B017C01EA
:103930001EE7115089F182E090E00E94570E0E942C
:10394000DB0D6C157D058E059F0520F40E94DB0DB7
:103950006B017C018E850E94950F892BF9F40E94E2
:10396000DB0D6C197D098E099F09643F714081054B
:103970009105F8F213C00E94DB0D6B017C01113040
:10398000C1F10E94DB0D6C197D098E099F09643F0E
:10399000714081059105D0F010E02BC061E08E856B
:1039A0000E94360F60E08E850E944F0F84E591E003
:1039B0000E94570E0E94DB0D6B017C018E850E94D8
:1039C000950F11E0892BD9F210E0D9CF8E850E9496
:1039D000950F11E0892B09F010E089E090E00E943A
:1039E000570E0E94DB0D6C157D058E059F0538F680
:1039F000C2CF812FDF91CF911F91FF90EF90DF9089
:103A0000CF9008951F93CF93DF93FC011081C18164
:103A1000D281912F9095F8948A8189238A83898114
:103A2000812B898360FF0BC089E090E00E94570ED4
:103A30008A81812B8A8378948FE290E00AC087E3A1
:103A400090E00E94570E8A81812B8A83789485E0CA
:103A500090E0DF91CF911F910C94570E0F931F931D
:103A6000CF93DF93FC011081C181D281F8948981C9
:103A7000812B89838A81012F009580238A8382E0AC
:103A800090E00E94570E89818023898387E090E02F
:103A90000E94570EC88178948DE290E00E94570EE4
:103AA0001C2381E009F480E0DF91CF911F910F91F9
:103AB0000895CF92DF92EF92FF920F931F93CF93CF
:103AC000DF931F92CDB7DEB76C01E62E08E010E061
:103AD000FF24F3949F2D9E2161E009F460E0C6016C
:103AE00049830E94021DFF0C0150110949810115F3
:103AF000110581F7411115C0F894D6011196ED9189
:103B0000FC91129791818C918095892381831196E4
:103B1000ED91FC91129792818C91809589238283FB
:103B200078940F90DF91CF911F910F91FF90EF90BC
:103B3000DF90CF900895FC011386158614861286B7
:103B400011861086178216821582148213820895B8
:103B5000CF93DF93EC01862F6E8760E00E94360FD3
:103B60008E8590E0FC01E45DF44FE491E883FC0174
:103B7000E15AF44FE491F0E0EE56F44FE491E9831A
:103B80001A82CE01DF91CF910C949B1DFC01128A09
:103B9000118E138EDC01A356BE4F89E111968C93D2
:103BA000119714961C92DF01AE55BE4F1C921296CF
:103BB0001C92E956FE4F1182108208958DE59AE01D
:103BC0000C94C61DCF92DF92EF92FF926B017C01A5
:103BD000411134C088E00E94D40EC701B60122E032
:103BE00030E040E050E00E94B827305F414F5F4F27
:103BF000CA01B901A70196010E94B827DA01C901DB
:103C00000197A109B109892F9A2FAB2FBB27A7FDD7
:103C1000BA958093C50021502093C4008091C100C3
:103C200080618093C1008091C10088608093C10051
:103C30008091C10080688093C10033C080E10E9400
:103C4000D40EC701B60122E030E040E050E00E940F
:103C5000B827305F414F5F4FCA01B901A7019601F4
:103C60000E94B827DA01C9010197A109B109892F7A
:103C70009A2FAB2FBB27A7FDBA958093CD0021507B
:103C80002093CC008091C90080618093C90080910D
:103C9000C90088608093C9008091C90080688093C2
:103CA000C900FF90EF90DF90CF90089581110EC072
:103CB00088E00E940E0F8091C1008F7E8093C1002A
:103CC0008091C100877F8093C100089580E10E94A8
:103CD0000E0F8091C9008F7E8093C9008091C9002A
:103CE000877F8093C9000895611107C09091C0003B
:103CF00095FFFCCF8093C60008959091C80095FF72
:103D0000FCCF8093CE00089581110AC080911F0CD2
:103D10009091200C9E5F20911D0C30911E0C09C0CB
:103D200080911B0C90911C0C9E5F2091190C30917E
:103D30001A0C821B930B60E072E00E9482270895A8
:103D4000811119C080911D0C90911E0C20911F0CA7
:103D50003091200C2817390741F1FC01E950F14F4F
:103D60002081019660E072E00E94822790931E0CF1
:103D700080931D0C18C08091190C90911A0C209101
:103D80001B0C30911C0C2817390779F0FC01E95005
:103D9000F34F2081019660E072E00E9482279093A9
:103DA0001A0C8093190C30E002C02FEF3FEFC901CD
:103DB0000895811109C010921E0C10921D0C1092D2
:103DC000200C10921F0C089510921A0C1092190CCE
:103DD00010921C0C10921B0C08951F920F920FB69C
:103DE0000F9211242F933F934F935F936F937F9381
:103DF0008F939F93AF93BF93EF93E091C600209171
:103E00001F0C3091200CC901019660E072E00E9405
:103E1000822740911D0C50911E0C8417950741F08C
:103E2000D901A950B14FEC939093200C80931F0CB3
:103E3000EF91BF91AF919F918F917F916F915F9122
:103E40004F913F912F910F900FBE0F901F9018959B
:103E50001F920F920FB60F9211242F933F934F93FF
:103E60005F936F937F938F939F93AF93BF93EF93E2
:103E7000E091CE0020911B0C30911C0CC9010196E1
:103E800060E072E00E9482274091190C50911A0C58
:103E90008417950741F0D901A950B34FEC93909343
:103EA0001C0C80931B0CEF91BF91AF919F918F9150
:103EB0007F916F915F914F913F912F910F900FBE26
:103EC0000F901F9018950C94741ECF93C82F682FD5
:103ED0008DE00E94741E6C2F8AE0CF910C94741EAA
:103EE0001F93CF93DF93162FEC0103C0612F0E9425
:103EF000741E89918111FACFDF91CF911F9108959E
:103F00004F925F926F927F928F929F92AF92BF92E9
:103F1000CF92DF92EF92FF920F93CF93DF93CDB7C3
:103F2000DEB7A0970FB6F894DEBF0FBECDBF290154
:103F30003A016115710581059105C9F4602F80E38F
:103F4000A0960FB6F894DEBF0FBECDBFDF91CF9124
:103F50000F91FF90EF90DF90CF90BF90AF909F9028
:103F60008F907F906F905F904F900C94741EEE2412
:103F7000E394F12CEC0EFD1E812C912C5401A30135
:103F800092010E949627F70161937F01FFEF8F1A3C
:103F90009F0AAF0ABF0AB901CA01611571058105FF
:103FA000910569F7CC24CA94DC2C7601C80CD91C85
:103FB000EA1CFB1C14C0E1E0F0E0EC0FFD1FEC0D6F
:103FC000FD1D80818A3010F4805D01C0895C602F06
:103FD0000E94741E81E0C81AD108E108F108EFEFD1
:103FE000CE16DE06EE06FE0631F7A0960FB6F89462
:103FF000DEBF0FBECDBFDF91CF910F91FF90EF904D
:10400000DF90CF90BF90AF909F908F907F906F90F8
:104010005F904F900895CF92DF92EF92FF920F93AF
:104020006B017C01042F97FF0CC0642F8DE20E946E
:10403000741EF094E094D094C094C11CD11CE11C77
:10404000F11C2AE030E040E050E0C701B6010E94D8
:10405000801F0F91FF90EF90DF90CF900895109206
:104060002A0CE4E6F0E080818F778083589A599A91
:10407000E9EBF0E080818E7F808380818D7F80837B
:1040800081E48093B80085E48093BC0080E2EBE299
:10409000FCE0DF01982F1D929A95E9F7EBE4FCE034
:1040A000DF01982F1D929A95E9F7EBE6FCE0DF011E
:1040B0001D928A95E9F70895613298F420912A0CAF
:1040C000243089F46093270CFC018BE49CE0DC0134
:1040D00002C021912D932A2F281B2617D0F380E0B0
:1040E000089581E0089582E0089585EC8093BC00F6
:1040F00010922A0C0895589859988091B9008160BF
:104100008093B9008091B90082608093B90080915A
:10411000BC0080688093BC008091BC00806180936B
:10412000BC008091BC008F7B8093BC008091BC0060
:104130008F7D8093BC008091BC00877F8093BC0002
:104140008091F7109091F810A091F910B091FA10A9
:1041500086FD14C08091F7109091F810A091F9108D
:10416000B091FA1090FD0AC08091F7109091F8106C
:10417000A091F910B091FA1093FF04C08091BC0097
:104180008B7F03C08091BC0084608093BC008091D1
:10419000BC008E7F8093BC00809164008068809317
:1041A00064000895882349F01092210C1092220C8B
:1041B0001092230C1092240C13C08091210C90912A
:1041C000220CA091230CB091240C0196A11DB11DCD
:1041D0008093210C9093220CA093230CB093240C79
:1041E0008091210C9091220CA091230CB091240C71
:1041F000803A9648A140B10560F01092210C1092CF
:10420000220C1092230C1092240C0E942F2081E08B
:10421000089580E0089585ED8093BC0081E00E94C0
:10422000D22008C080E00E94D220882319F010928A
:104230002A0C08958091BC0084FDF4CFF8CFFF9242
:104240000F931F93CF93DF93182F062FF72EC42FB2
:10425000D22F81E0413208F051C00E94D22015C017
:1042600080E00E94D220882381F082E080932A0C93
:104270008FEF8093250C1092290CC0938B0CE02FAC
:10428000FF2D6BE27CE0DB0107C080912A0C8111DD
:10429000E7CFEBCF81918D938A2F861B8C17D0F3BC
:1042A000812F90E0880F991F80938C0C85EE80936E
:1042B000BC0081E00E94D220D11105C08091250C64
:1042C0008F3F59F414C080912A0C8230B9F780E0F6
:1042D0000E94D22081110DC0F6CF8091250C803232
:1042E00051F08091250C803341F483E007C080E0D9
:1042F00005C085E003C082E001C084E0DF91CF917A
:104300001F910F91FF9008950F931F93CF93DF9309
:10431000082FD62F172FC42F81E04132E0F50E94DD
:10432000D2201DC080E00E94D2208823C1F081E00D
:1043300080932A0C8FEF8093250C1092290CC09348
:104340008B0C802F90E0880F991F816080938C0CDC
:1043500085EE8093BC0081E00E94D22010C0809145
:104360002A0C8111DFCFE3CF80E00E94D220882386
:1043700031F08BE29CE0ED2FF12FDC0107C0809142
:104380002A0C813089F3F5CF2D9121932A2F281BF8
:104390002C17D0F380E0DF91CF911F910F910895FA
:1043A0001F920F920FB60F9211240BB60F922F93FC
:1043B0003F934F935F936F937F938F939F93AF93AD
:1043C000BF93CF93EF93FF93C091B900C87FC036DE
:1043D00009F49FC058F5C83209F45BC090F4C031AD
:1043E00009F452C038F4CC2309F4F2C0C83009F003
:1043F000F3C04AC0C83109F44CC0C03209F0ECC067
:104400005DC0C03409F473C038F4C03309F45BC034
:10441000C83309F0E1C05AC0C03509F45CC0C835E2
:1044200009F46AC0C83409F0D7C0D4C0C83909F447
:10443000C5C0A8F4C83709F46CC038F4C83609F40C
:1044400068C0C03709F0C8C064C0C83809F4B6C035
:10445000C03909F464C0C03809F0BEC060C0C03BB8
:1044600009F484C038F4C03A09F46BC0C83A09F0C2
:10447000B3C07CC0C03C09F4A5C0C83C09F4A2C0CC
:10448000C83B09F0A9C087C080918C0C8093BB0009
:1044900013C09091290C80918B0C981708F09AC04A
:1044A0008091290CE82FF0E0E55DF34F9081909327
:1044B000BB008F5F8093290C85EC81C00E940B218B
:1044C000C093250C89C0C093250C84C0C093250CD3
:1044D0000E94752081C08091290C9091BB00E82F2B
:1044E000F0E0E55DF34F90838F5F8093290C90910E
:1044F000290C80918B0C5FC08091290C9091BB009E
:10450000E82FF0E0E55DF34F90838F5F8093290CF7
:1045100061C083E080932A0C1092260CCDCF80914D
:10452000260C803208F04AC08091260C9091BB0086
:10453000E82FF0E0E559F34F90838F5F8093260CCE
:10454000BBCF8091260C803230F4E091260CF0E055
:10455000E559F34F10826091260CE0918D0CF0919B
:104560008E0C70E08BE69CE009952CC084E0809373
:104570002A0C1092280C1092270CE0918F0CF091CD
:10458000900C09958091270C811105C081E08093E2
:10459000270C10924B0C8091280CE82FF0E0E55B83
:1045A000F34F90819093BB008F5F8093280C909184
:1045B000280C8091270C981708F47ECF85E880930B
:1045C000BC000AC085EC8093BC0010922A0C04C089
:1045D0001092250C0E940B21FF91EF91CF91BF917A
:1045E000AF919F918F917F916F915F914F913F918B
:1045F0002F910F900BBE0F900FBE0F901F9018952C
:104600001F920F920FB60F9211240BB60F922F9399
:104610003F934F935F936F937F938F939F93AF934A
:10462000BF93EF93FF938091910C9091920C892B03
:1046300029F0E091910CF091920C0995FF91EF9186
:10464000BF91AF919F918F917F916F915F914F91AA
:104650003F912F910F900BBE0F900FBE0F901F90A8
:1046600018951F920F920FB60F9211240BB60F924E
:104670002F933F934F935F936F937F938F939F936A
:10468000AF93BF93EF93FF938091930C9091940C11
:10469000892B29F0E091930CF091940C0995FF91EE
:1046A000EF91BF91AF919F918F917F916F915F91AA
:1046B0004F913F912F910F900BBE0F900FBE0F9017
:1046C0001F9018951F920F920FB60F9211240BB6E0
:1046D0000F922F933F934F935F936F937F938F939B
:1046E0009F93AF93BF93EF93FF938091950C90911D
:1046F000960C892B29F0E091950CF091960C099578
:10470000FF91EF91BF91AF919F918F917F916F91A9
:104710005F914F913F912F910F900BBE0F900FBE65
:104720000F901F9018951F920F920FB60F921124A1
:104730000BB60F922F933F934F935F936F937F939B
:104740008F939F93AF93BF93EF93FF938091970CB9
:104750009091980C892B29F0E091970CF091980C8E
:104760000995FF91EF91BF91AF919F918F917F91AB
:104770006F915F914F913F912F910F900BBE0F90D2
:104780000FBE0F901F9018951F920F920FB60F92A9
:1047900011240BB60F922F933F934F935F936F9318
:1047A0007F938F939F93AF93BF93EF93FF938091EA
:1047B000990C90919A0C892B29F0E091990CF09129
:1047C0009A0C0995FF91EF91BF91AF919F918F91B5
:1047D0007F916F915F914F913F912F910F900BBE01
:1047E0000F900FBE0F901F9018951F920F920FB64B
:1047F0000F9211240BB60F922F933F934F935F9319
:104800006F937F938F939F93AF93BF93EF93FF9398
:1048100080919B0C90919C0C892B29F0E0919B0C32
:10482000F0919C0C0995FF91EF91BF91AF919F91F1
:104830008F917F916F915F914F913F912F910F9049
:104840000BBE0F900FBE0F901F9018951F920F92E6
:104850000FB60F9211240BB60F922F933F934F93E5
:104860005F936F937F938F939F93AF93BF93EF93D8
:10487000FF9380919D0C90919E0C892B29F0E091E3
:104880009D0CF0919E0C0995FF91EF91BF91AF9116
:104890009F918F917F916F915F914F913F912F9158
:1048A0000F900BBE0F900FBE0F901F9018951F9288
:1048B0000F920FB60F9211240BB60F922F933F93C6
:1048C0004F935F936F937F938F939F93AF93BF9318
:1048D000EF93FF9380919F0C9091A00C892B29F06E
:1048E000E0919F0CF091A00C0995FF91EF91BF9181
:1048F000AF919F918F917F916F915F914F913F9178
:104900002F910F900BBE0F900FBE0F901F90189518
:10491000CF93DF93EC0180E2EFECFCE0DF01982F16
:104920001D929A95E9F71092CE0C1092CD0CECEAFC
:10493000FCE0DF011D928A95E9F71092AB0C109212
:10494000AA0C0E942F2081E08E8384E090E0DF910A
:10495000CF910C94570E81E08093A90C6093CC0CFE
:104960001092AB0C1092AA0C08950C94AB24809179
:10497000CD0C9091CE0C891B08959091CE0C809116
:10498000CD0C981748F4E92FF0E0E153F34F808104
:104990009F5F9093CE0C089580E00895CF93DF93AE
:1049A000EC010E947B201E82DF91CF9108954091FF
:1049B000F7105091F8106091F9107091FA10417051
:1049C000FC0140834091F7105091F8106091F9106C
:1049D0007091FA1076956795579547954170418388
:1049E0008091F7109091F810A091F910B091FA1001
:1049F00084FD49C08091F7109091F810A091F910B2
:104A0000B091FA1085FD3FC08091F7109091F81099
:104A1000A091F910B091FA1086FD35C08091F71081
:104A20009091F810A091F910B091FA1087FD2BC069
:104A30008091F7109091F810A091F910B091FA10B0
:104A400090FD21C08091F7109091F810A091F9107D
:104A5000B091FA1091FD17C08091F7109091F81065
:104A6000A091F910B091FA1093FD0DC0089540E0A7
:104A700060E08BE59AE00E94191C40E061E08BE564
:104A80009AE00C94191C8091A80C882381F3089556
:104A9000CF93DF93EC018091F7109091F810A091E3
:104AA000F910B091FA1084FD58C08091F7109091E0
:104AB000F810A091F910B091FA1085FD4EC08091C8
:104AC000F7109091F810A091F910B091FA1086FDAE
:104AD00044C08091F7109091F810A091F910B09116
:104AE000FA1087FD3AC08091F7109091F810A091CC
:104AF000F910B091FA1090FD30C04091F71050912C
:104B0000F8106091F9107091FA1051FD26C0409193
:104B1000F7105091F8106091F9107091FA1053FD50
:104B20001CC020C041E060E08BE59AE00E94191CA7
:104B30000CC08981811106C041E060E08BE59AE0FC
:104B40000E94191C888181110DC041E061E08BE554
:104B50009AE0DF91CF910C94191C8091A80C8111DF
:104B6000E8CFE0CFDF91CF910895CF93DF931F92ED
:104B7000CDB7DEB769838091A90C882389F0809135
:104B8000AA0C8032D0F48091AB0CE82FF0E0E45511
:104B9000F34F60838F5F8093AB0C8093AA0C0DC0A2
:104BA00081EA9CE00E94D72461E0CE0101960E9438
:104BB0005C2081EA9CE00E9448250F90DF91CF9114
:104BC00008950C94B525CF9381EA9CE00E94D724E8
:104BD00021E04091AA0C6CEA7CE08091CC0C0E9410
:104BE0001F21C82F1092AB0C1092AA0C1092A90C86
:104BF00081EA9CE00E9448258C2FCF910895CF93A5
:104C0000DF93D62FC42F81EA9CE00E94D724C132C3
:104C100008F0C0E24C2F6FEC7CE08D2F0E948421C5
:104C2000D82F1092CE0CC093CD0C81EA9CE00E944C
:104C300048258D2FDF91CF9108950C94FF25109278
:104C4000A80C1092A10C1092A20C8AEF90E0A0E0A8
:104C5000B0E08093A30C9093A40CA093A50CB09308
:104C6000A60C089598D088F09F5790F0B92F9927F7
:104C7000B751A0F0D1F0660F771F881F991F1AF067
:104C8000BA95C9F712C0B13081F09FD0B1E0089554
:104C90009CC0672F782F8827B85F39F0B93FCCF3D5
:104CA000869577956795B395D9F73EF4909580955D
:104CB000709561957F4F8F4F9F4F0895E89409C07D
:104CC00097FB3EF490958095709561957F4F8F4F3F
:104CD0009F4F9923A9F0F92F96E9BB279395F69555
:104CE000879577956795B795F111F8CFFAF4BB0FD3
:104CF00011F460FF1BC06F5F7F4F8F4F9F4F16C037
:104D0000882311F096E911C0772321F09EE8872FC0
:104D1000762F05C0662371F096E8862F70E060E07C
:104D20002AF09A95660F771F881FDAF7880F9695F5
:104D3000879597F9089597F99F6780E870E060E09C
:104D400008959FEF80EC089500240A941616170624
:104D500018060906089500240A941216130614066C
:104D600005060895092E0394000C11F4882352F0CF
:104D7000BB0F40F4BF2B11F460FF04C06F5F7F4F87
:104D80008F4F9F4F089557FD9058440F551F59F06E
:104D90005F3F71F04795880F97FB991F61F09F3F28
:104DA00079F087950895121613061406551FF2CF51
:104DB0004695F1DF08C0161617061806991FF1CFA1
:104DC00086957105610508940895E894BB276627C8
:104DD0007727CB0197F908950BD0C4CFB5DF28F022
:104DE000BADF18F0952309F0A6CFABCF1124EECF90
:104DF000CADFA0F3959FD1F3950F50E0551F629F36
:104E0000F001729FBB27F00DB11D639FAA27F00D23
:104E1000B11DAA1F649F6627B00DA11D661F829F4A
:104E20002227B00DA11D621F739FB00DA11D621F2F
:104E3000839FA00D611D221F749F3327A00D611D4C
:104E4000231F849F600D211D822F762F6A2F11242E
:104E50009F5750408AF0E1F088234AF0EE0FFF1F81
:104E6000BB1F661F771F881F91505040A9F79E3FB8
:104E7000510570F060CFAACF5F3FECF3983EDCF3B2
:104E8000869577956795B795F795E7959F5FC1F7F5
:104E9000FE2B880F911D9695879597F90895A29FEF
:104EA000B001B39FC001A39F01D0B29F700D811DBF
:104EB0001124911D08950E944F27A59F900DB49F26
:104EC000900DA49F800D911D11240895B7FF0C949F
:104ED0005B270E945B27821B930B0895AA1BBB1BB9
:104EE00051E107C0AA1FBB1FA617B70710F0A61BEA
:104EF000B70B881F991F5A95A9F780959095BC010B
:104F0000CD01089597FB072E16F4009407D077FD86
:104F100009D00E946E2707FC05D03EF4909581953C
:104F20009F4F0895709561957F4F0895A1E21A2EC5
:104F3000AA1BBB1BFD010DC0AA1FBB1FEE1FFF1F3D
:104F4000A217B307E407F50720F0A21BB30BE40B8D
:104F5000F50B661F771F881F991F1A9469F76095D4
:104F60007095809590959B01AC01BD01CF0108958E
:104F7000052E97FB16F4009407D057FD0DD00E9424
:104F8000962707FC09D07EF49095809570956195E1
:104F90007F4F8F4F9F4F08955095409530952195A5
:104FA0003F4F4F4F5F4F0895689401C0E8948F9230
:104FB0009F92CF93DF930E94E227DF91CF919F9042
:104FC0008F90089588249924F401E401B0E49F931C
:104FD000AA279A158B049C04ED05FE05CF05D00782
:104FE000A10798F4AD2FDC2FCF2FFE2FE92D982CA1
:104FF000892E982F872F762F652F542F432F322FEE
:105000002227B85031F7BF9127C01B2EBF91BB2775
:10501000220F331F441F551F661F771F881F991FBC
:10502000881C991CEE1FFF1FCC1FDD1FAA1FBB1F72
:105030008A149B04EC05FD05CE05DF05A007B1072A
:1050400048F08A189B08EC09FD09CE09DF09A00B7E
:10505000B10B21601A94E1F62EF49401AF01BE0168
:10506000CD01000C08950F930F7351F0220F331FE1
:10507000441F551F661F771F881F991F0A95B1F798
:105080000F9108952A0D3B1D4C1D5D1D6E1D7F1D4A
:10509000801F911F08950790F691E02D09948F923B
:1050A0009F92AF92BF92CF92DF92EF92FF92CF93F7
:1050B000DF93EC01688179818A819B81611571059B
:1050C0008105910521F464E279ED8BE597E02DE10E
:1050D00033EF41E050E00E94B82749015A019B019B
:1050E000AC01A7EAB1E40E945B276B017C01ACEE46
:1050F000B4EFA50194010E946927C60ED71EE81ED1
:10510000F91EF7FE06C081E0C81AD108E10880E860
:10511000F80AC882D982EA82FB82E894D7F8EE24A2
:10512000FF24C601DF91CF91FF90EF90DF90CF90E9
:10513000BF90AF909F908F9008950C944F2886E079
:1051400092E00C944F28A0E0B0E080930602909388
:105150000702A0930802B09309020895FC01882772
:105160009927E89421912032E9F3293010F02E306C
:10517000C8F32B3241F02D3239F4689404C00E94F8
:105180002529820F911D219120532A30C0F31EF44E
:10519000909581959F4F0895FB01DC0105900D923C
:1051A0000020E1F708954CE154E00C94FE28FB0147
:1051B000DC0104C08D910190801921F441505040D0
:1051C000C8F7881B990B0895FB01DC010D900020A6
:1051D000E9F7119701900D920020E1F70895FB0186
:1051E000DC014150504048F001900D920020C9F779
:1051F00001C01D9241505040E0F70895FA01A1917D
:10520000B081009719F41097E1F0CD01DC01CD01D8
:105210000D90002011F4C00113C0FB012191222345
:1052200019F02015D9F7F3CFFB012191201519F4BE
:105230001E92119606C02223C1F70D900020A1F7FF
:10524000D001FA01A193B08308957AE0979F902D41
:10525000879F802D910D112408950F931F93CF9355
:10526000DF93CDB7DEB72E970FB6F894DEBF0FBE33
:10527000CDBF0D891E898F89988D26E02C831A83D6
:10528000098397FF02C080E090E801979E838D8399
:10529000CE014B96AC01698D7A8DCE0101960E94AC
:1052A00099294D815E8157FD0AC02F8138854217AB
:1052B00053070CF49A01F801E20FF31F10822E96A7
:1052C0000FB6F894DEBF0FBECDBFDF91CF911F9117
:1052D0000F9108950F931F93CF93DF93CDB7DEB750
:1052E0002E970FB6F894DEBF0FBECDBF0D891E8975
:1052F0008EE08C831A8309838FEF9FE79E838D83D3
:10530000CE014996AC016F89788DCE0101960E943D
:105310009929EF81F885E00FF11F10822E960FB6C4
:10532000F894DEBF0FBECDBFDF91CF911F910F91DB
:1053300008952F923F924F925F926F927F928F9239
:105340009F92AF92BF92CF92DF92EF92FF920F9314
:105350001F93CF93DF93CDB7DEB72C970FB6F8949A
:10536000DEBF0FBECDBF7C016B018A01FC0117823D
:105370001682838181FFC6C188248394912C8C0E70
:105380009D1EF7019381F60193FD859193FF819115
:105390006F01882309F4B2C1853239F493FD8591F8
:1053A00093FF81916F01853229F4B70190E00E944B
:1053B000D02BE7CF512C312C20E02032A8F48B32B7
:1053C00061F028F4803251F0833271F40BC08D32D9
:1053D00039F0803349F4216028C02260246025C060
:1053E000286023C0206121C027FD27C0382F3053FB
:1053F0003A3078F426FF06C0FAE05F9E300D1124A3
:10540000532E13C08AE0389E300D1124332E2062B3
:105410000CC08E3221F426FD71C1206406C08C368A
:1054200011F4206802C0883641F4F60193FD85919D
:1054300093FF81916F018111C0CF982F95549330C4
:1054400018F09052933028F40C5F1F4FFFE3F9835C
:105450000DC0833631F0833771F0833509F05EC0BB
:1054600023C0F801808189830E5F1F4F4424439439
:10547000512C540115C03801F2E06F0E711CF80177
:10548000A080B18026FF03C0652D70E002C06FEFE1
:105490007FEFC5012C870E94C52B2C0183012C8531
:1054A0006FE7262E222218C03801F2E06F0E711C21
:1054B000F801A080B18026FF03C0652D70E002C016
:1054C0006FEF7FEFC5012C870E94BA2B2C012C8532
:1054D00050E8252E222A830123FC1CC006C0B701F8
:1054E00080E290E00E94D02B3A94832D90E0481601
:1054F0005906A8F30FC0F50127FC859127FE81917D
:105500005F01B70190E00E94D02B31103A94F1E096
:105510004F1A51084114510471F7EDC0843611F04F
:10552000893641F5F80127FF07C0608171818281CA
:1055300093810C5F1F4F08C060817181882777FDC0
:105540008095982F0E5F1F4F4FE6B42EB22297FF23
:1055500009C090958095709561957F4F8F4F9F4FB3
:10556000F0E8BF2A2AE030E0A4010E94FC2BA82E1C
:10557000A81843C0853731F43FEEB32EB2222AE09B
:1055800030E024C099EFB92EB2228F36B9F020F462
:10559000883509F0B3C00DC0803721F0883709F095
:1055A000ADC002C020E1B22AB4FE0BC084E0B82A2C
:1055B00008C024FF09C0E6E0BE2A06C028E030E0AB
:1055C00005C020E130E002C020E132E0F801B7FE82
:1055D00007C060817181828193810C5F1F4F06C07B
:1055E0006081718180E090E00E5F1F4FA4010E94F6
:1055F000FC2BA82EA818FFE7BF22B6FE0BC02B2D50
:105600002E7FA51450F4B4FE0AC0B2FC08C02B2DA6
:105610002E7E05C07A2C2B2D03C07A2C01C0752C50
:1056200024FF0DC0FE01EA0DF11D8081803311F4CD
:10563000297E09C022FF06C07394739404C0822F90
:10564000867809F0739423FD14C020FF0FC05A2CF4
:10565000731460F4530C5718732C08C0B70180E220
:1056600090E02C870E94D02B73942C857314B0F398
:1056700004C0731410F4371801C0312C24FF12C079
:10568000B70180E390E02C870E94D02B2C8522FF6D
:105690001EC021FF03C088E590E002C088E790E0CB
:1056A000B7010CC0822F867891F021FD02C080E204
:1056B00001C08BE227FD8DE2B70190E00E94D02B64
:1056C00006C0B70180E390E00E94D02B5A94A51445
:1056D000C0F3AA94F401EA0DF11DB701808190E0B6
:1056E0000E94D02BA110F5CF06C0B70180E290E058
:1056F0000E94D02B3A943110F8CF43CEF701268187
:10570000378102C02FEF3FEFC9012C960FB6F894F6
:10571000DEBF0FBECDBFDF91CF911F910F91FF90E4
:10572000EF90DF90CF90BF90AF909F908F907F9041
:105730006F905F904F903F902F900895F999FECF12
:1057400092BD81BDF89A992780B50895A6E1B0E091
:1057500044E050E00C945C2C262FF999FECF1FBA40
:1057600092BD81BD20BD0FB6F894FA9AF99A0FBE8A
:1057700001960895FC010590615070400110D8F722
:10578000809590958E0F9F1F0895FC016150704089
:1057900001900110D8F7809590958E0F9F1F089566
:1057A0000F931F93CF93DF938C01EB018B8181FDCE
:1057B00003C00FEF1FEF1AC082FF0DC02E813F8183
:1057C0008C819D812817390764F4E881F981019360
:1057D000F983E88306C0E885F985802F0995892B30
:1057E00041F78E819F8101969F838E83C801DF914F
:1057F000CF911F910F910895FA01AA27283051F1F6
:10580000203181F1E8946F936E7F6E5F7F4F8F4FF1
:105810009F4FAF4FB1E03ED0B4E03CD0670F781F50
:10582000891F9A1FA11D680F791F8A1F911DA11D35
:105830006A0F711D811D911DA11D20D009F468946E
:105840003F912AE0269F11243019305D3193DEF616
:10585000CF010895462F4770405D4193B3E00FD0CC
:10586000C9F7F6CF462F4F70405D4A3318F0495DB7
:1058700031FD4052419302D0A9F7EACFB4E0A6959A
:105880009795879577956795BA95C9F700976105BC
:10589000710508959B01AC010A2E06945795479512
:1058A00037952795BA95C9F7620F731F841F951F07
:1058B000A01D0895DC01CB01FC01F999FECF06C0C3
:1058C000F2BDE1BDF89A319600B40D9241505040BE
:0858D000B8F70895F894FFCF2A
:1058D800000009112000010000003031303230335F
:1058E8003034303530363037303830393033303383
:1058F80030333033303330330003303130323033EB
:105908003034303530363037303830393130313165
:105918003132313331343135313600303130323093
:105928003330343035303630373038003131313279
:1059380031333134313531363137313800014A4F5E
:10594800494E544F5441413A2076657273696F6EDF
:10595800206572726F72004A4F494E544F5441414C
:105968003A20696E707574206572726F72004A4FC2
:10597800494E544F5441413A206E6F74206A6F6902
:105988006E6564004A4F494E544F5441413A205382
:10599800656E64696E67206572726F72004A4F495E
:1059A8004E544F5441413A204572726F72207769C4
:1059B80074682064617461206C656E677468004A5D
:1059C8004F494E544F5441413A20696E69742065DD
:1059D80072726F72004A4F494E544F5441413A20F7
:1059E8004D6F64756C65206469646E2774207265F8
:1059F80073706F6E7365004A4F494E544F5441415E
:105A08003A204D6F64756C6520616E7377657220FE
:105A18006572726F72004A4F494E544F5441413A71
:105A2800204D6573736167652073656E74004F540C
:105A38004141206A6F696E6564004D6F64756C65DD
:105A4800206861736E2774206A6F696E65642061CF
:105A5800206E6574776F726B004572726F72207773
:105A68006974682064617461206C656E6774680984
:105A78002020004D6F64756C6520636F6D6D756EC9
:105A880069636174696F6E206572726F722020207D
:105A98000074656D70203A76616C003433330038D9
:105AA80036380039303000200D0A006F6666002E47
:105AB8000D0A0025730053756E004D6F6E00547506
:105AC8006500576564005468750046726900536143
