:100000000C94DC050C940A230C943B230C946C2375
:100010000C949D230C94CE230C94FF230C94302439
:100020000C9461240C940B060C940B060C940B0698
:100030000C94640D0C940B060C940B060C94C00DE0
:100040000C940B060C940B060C940B060C940B06EC
:100050000C940B060C940B060C940B060C949B0D45
:100060000C940B060C94F71E0C940B060C940B06C8
:100070000C940B060C940B060C940B060C940B06BC
:100080000C940B060C940B060C940B060C940B06AC
:100090000C94321F0C940B060C940B060C94DA2172
:1000A0000C940B060C940B060C940B060C940B068C
:1000B0000C940B060C940B060C940B060C940B067C
:1000C0000C940B060C940B060C940B06312E20534B
:1000D0007769746368204F4E204F4B00312E2053B8
:1000E0007769746368204F4E206572726F72203D8D
:1000F0002000322E204465766963652045554920ED
:10010000736574204F4B00322E2044657669636519
:100110002045554920736574206572726F72203DC9
:100120002000332E204170706C69636174696F6EBA
:100130002045554920736574204F4B00332E2041D4
:1001400070706C69636174696F6E204555492073E6
:100150006574206572726F72203D2000342E20413C
:1001600070706C69636174696F6E204B6579207380
:100170006574204F4B00342E204170706C696361B0
:1001800074696F6E204B6579207365742065727297
:100190006F72203D2000352E205361766520636FFD
:1001A0006E66696775726174696F6E204F4B0035BA
:1001B0002E205361766520636F6E66696775726184
:1001C00074696F6E206572726F72203D20009A0212
:1001D000A602B902C902D702E602F9020E031D0304
:1001E00028033403410356036A037E039303A803E1
:1001F000BC03D003E003F1030A04240442045C04BA
:100200006E047F0490049D04AC04BD04CB04DE04A2
:10021000ED04FC040D052205390551056805750539
:1002200083059105A005B305C805DB05ED050106AD
:1002300018062F06430658066B067D069106A30690
:10024000B306C406D406E306F40608071707270713
:100250003607460756076807760788079707A807EF
:10026000BC07CC07E007F007000815082A0840087B
:100270004C084F085D0868086F087B0882088B08E7
:100280009608A008A308A708B208BC08BF08CA08B7
:10029000D208E308F108FC0803097379732072653A
:1002A0007365740D0A0073797320666163746F72ED
:1002B0007952455345540D0A00737973206765746C
:1002C0002068776575690D0A007379732067657416
:1002D000207664640D0A006D616320726573657435
:1002E0002025730D0A006D616320747820636E66AB
:1002F0002025752025730D0A006D61632074782018
:10030000756E636E662025752025730D0A006D617C
:1003100063206A6F696E206162700D0A006D61630F
:1003200020736176650D0A006D61632070617573DD
:10033000650D0A006D616320726573756D650D0A48
:10034000006D616320736574206465766164647216
:100350002025730D0A006D61632073657420646548
:10036000766575692025730D0A006D6163207365DC
:1003700074206170706575692025730D0A006D61C8
:100380006320736574206E776B736B6579202573BA
:100390000D0A006D61632073657420617070736B6A
:1003A00065792025730D0A006D61632073657420E3
:1003B0006170706B65792025730D0A006D61632093
:1003C000736574207077726964782025750D0A0052
:1003D0006D6163207365742064722025750D0A00B9
:1003E0006D616320736574206164722025730D0A4A
:1003F000006D6163207365742063682066726571A7
:1004000020257520256C750D0A006D6163207365CC
:100410007420636820646379636C652025752025EA
:10042000750D0A006D616320736574206368206434
:100430007272616E67652025752025752025750D02
:100440000A006D61632073657420636820737461B2
:100450007475732025752025730D0A006D61632066
:1004600067657420646576616464720D0A006D616D
:100470006320676574206465766575690D0A006D93
:10048000616320676574206170706575690D0A008D
:100490006D6163206765742064720D0A006D61638D
:1004A000206765742062616E640D0A006D616320CF
:1004B000676574207077726964780D0A006D6163F6
:1004C00020676574206164720D0A006D61632067A6
:1004D000657420646379636C6570730D0A006D61E7
:1004E0006320676574206D72676E0D0A006D61632D
:1004F000206765742067776E620D0A006D61632066
:10050000676574207374617475730D0A006D61639F
:100510002067657420636820667265712025750DFB
:100520000A006D61632067657420636820646379E5
:10053000636C652025750D0A006D61632067657425
:1005400020636820647272616E67652025750D0AEC
:10055000006D616320676574206368207374617443
:1005600075732025750D0A00726164696F207278B9
:1005700020300D0A00726164696F20747820257341
:100580000D0A00726164696F206377206F6E0D0A37
:1005900000726164696F206377206F66660D0A00E0
:1005A000726164696F20736574206D6F64202573B8
:1005B0000D0A00726164696F20736574206672654C
:1005C0007120256C750D0A00726164696F20736576
:1005D00074207077722025690D0A00726164696F5A
:1005E000207365742073662025730D0A00726164A0
:1005F000696F2073657420727862772025730D0A05
:1006000000726164696F207365742072786277206C
:1006100025732E25730D0A00726164696F2073655E
:100620007420626974726174652025750D0A007208
:100630006164696F20736574206664657620257532
:100640000D0A00726164696F207365742070726CAA
:10065000656E2025750D0A00726164696F207365EF
:1006600074206372632025730D0A00726164696FE0
:10067000207365742063722025730D0A0072616413
:10068000696F207365742077647420256C750D0A7A
:1006900000726164696F207365742062772025752C
:1006A0000D0A00726164696F20676574206D6F6464
:1006B0000D0A00726164696F206765742066726557
:1006C000710D0A00726164696F206765742070772C
:1006D000720D0A00726164696F2067657420736629
:1006E0000D0A00726164696F206765742072786218
:1006F000770D0A00726164696F2067657420626912
:1007000074726174650D0A00726164696F206765B7
:10071000742063720D0A00726164696F20676574EA
:10072000207764740D0A00726164696F20676574D4
:100730002062770D0A00726164696F20676574201A
:10074000736E720D0A00726164696F2067657420B0
:100750006372630D0A00726164696F2067657420BB
:1007600070726C656E0D0A00737973206765742072
:100770007665720D0A006D61632073657420726581
:1007800074782025750D0A006D61632067657420FB
:10079000726574780D0A00726164696F2067657410
:1007A00020666465760D0A006D61632073657420B0
:1007B000757063747220256C750D0A006D6163207D
:1007C0006765742075706374720D0A006D61632033
:1007D00073657420646E63747220256C750D0A0055
:1007E0006D61632067657420646E6374720D0A0026
:1007F0006D6163206A6F696E206F7461610D0A001C
:100800006D616320736574206C696E6B63686B2027
:1008100025750D0A006D616320736574207278324E
:1008200020257520256C750D0A006D6163207365A8
:100830007420727864656C6179312025750D0A0029
:100840006D61632072657365740D0A006F6B0069DA
:100850006E76616C69645F706172616D006E6F5F6E
:10086000667265655F6368006D61635F72780072D0
:100870006164696F5F74785F6F6B00524E32343819
:100880003300616363657074656400726164696FED
:100890005F72782020006D61635F74785F6F6B001A
:1008A0006F6E006F6666006D61635F706175736582
:1008B0006400726164696F5F657272000D0A0034D2
:1008C000323934393637323435006D61635F6572E1
:1008D0007200696E76616C69645F646174615F6CFB
:1008E000656E006B6579735F6E6F745F696E6974B6
:1008F000006E6F745F6A6F696E65640064656E692F
:10090000656400524E3239303300320946096C09B1
:100910009309B309CB09D909E909FE09140A250A83
:10092000310A380A550A730A890A970AA70ACA0AB5
:10093000D00A416C61726D204D6F6465206D6174E9
:100940006368657320005B446179203A20686F75A5
:100950007273203A206D696E75746573203A207346
:1009600065636F6E64735D202D3E20005B4461748F
:1009700065203A20686F757273203A206D696E7534
:10098000746573203A207365636F6E64735D202D08
:100990003E20005B486F757273203A206D696E755A
:1009A000746573203A207365636F6E64735D202DE8
:1009B0003E20005B4D696E75746573203A20736547
:1009C000636F6E64735D202D3E20005B5365636F23
:1009D0006E64735D202D3E20004F6E636520706550
:1009E00072207365636F6E6400496E636F72726527
:1009F000637420616C61726D206D6F6465005B25AE
:100A00003032753A253032753A253032753A253014
:100A100032755D005B253032753A253032753A25E6
:100A20003032755D005B253032753A253032755DA8
:100A3000005B253032755D005B446179203A2068A7
:100A40006F757273203A206D696E75746573205DE1
:100A5000202D3E20005B44617465203A20686F754C
:100A60007273203A206D696E75746573205D202D58
:100A70003E20005B486F757273203A206D696E7579
:100A80007465735D202D3E20005B4D696E75746545
:100A9000735D202D3E20004F6E63652070657220CF
:100AA0006D696E7574650025732C20253032752FA5
:100AB000253032752F253032752C20253032753A8D
:100AC000253032753A25303275006572726F7200CA
:100AD0002530327525632530327525632530327512
:100AE0002563253032752563253032752563253021
:100AF00032752563253032750000000809000000BA
:100B000000000000000000000000000000000000E5
:100B100000000000000000000000000000000000D5
:100B200000000000000000000000000001020810AA
:100B300010204080040810204002020408102040C9
:100B400080010280204004200101020408102001DD
:100B5000408040800102080408800410040201055E
:100B6000050505030303030101010404030606064A
:100B7000060606060601040501050103020202023B
:100B80000202010202050504040304040103040730
:100B9000070700202326292C2F32002225282B2E60
:100BA0003134002124272A2D30333C0DB2148B1907
:100BB0008D1A141CE81D292611241FBECFEFD1E287
:100BC000DEBFCDBF13E0A0E0B2E0ECEEF8E500E060
:100BD0000BBF02C007900D92A03FB107D9F710E1FB
:100BE000A0EFB3E001C01D92AD3DB107E1F71BE0FE
:100BF000C8EBDBE000E006C022970109FE010BBF55
:100C00000E945528CA3AD10780E00807A9F70E9438
:100C10008A120C94742C0C9400006091F30384EFFE
:100C200093E00E94FF078093F203811107C06CECF0
:100C300070E080E29AE00E946F1A11C06CED70E0E3
:100C400080E29AE00E94E7194091F20350E060E0F0
:100C500070E02AE030E080E29AE00E940F1A6DE333
:100C600072E084EF93E00E945E088093F2038111AA
:100C700007C062EF70E080E29AE00E946F1A11C034
:100C800067E071E080E29AE00E94E7194091F20388
:100C900050E060E070E02AE030E080E29AE00E94FC
:100CA0000F1A6CE272E084EF93E00E9412098093C5
:100CB000F203811107C062E271E080E29AE00E94D3
:100CC0006F1A11C06CE371E080E29AE00E94E719AC
:100CD0004091F20350E060E070E02AE030E080E212
:100CE0009AE00E940F1A6BE072E084EF93E00E949A
:100CF000C6098093F203811107C06CE571E080E2C0
:100D00009AE00E946F1A11C066E771E080E29AE0F3
:100D10000E94E7194091F20350E060E070E02AE0A1
:100D200030E080E29AE00E940F1A84EF93E00E9484
:100D30007A0A8093F203811107C066E971E080E2CC
:100D40009AE00E946F1A11C06FEA71E080E29AE0A7
:100D50000E94E7194091F20350E060E070E02AE061
:100D600030E080E29AE00E940F1A84EF93E00E9444
:100D7000FB0A8093F2038430E1F040F4813011F1FA
:100D800020F18230E1F0833031F516C0863059F021
:100D900068F0873029F08830F1F46FE472E017C012
:100DA00068E672E014C06FE772E011C065E972E0B6
:100DB0000EC06EEA72E00BC060ED72E008C066EE35
:100DC00072E005C068E073E002C067E273E080E2B1
:100DD0009AE00E944C1A60ED77E080E090E00C947D
:100DE000370ECF93DF93CDB7DEB72A970FB6F894BF
:100DF000DEBF0FBECDBFAE014F5F5F4F60910A02F5
:100E000084EF93E00E94C80B8093F2038230B1F02C
:100E100028F48823C9F08130E9F413C0853041F00B
:100E2000863019F08430B1F406C06FE373E00EC071
:100E300060EA72E00BC06EE573E008C061EF72E03B
:100E400005C068E773E002C062E373E080E29AE005
:100E50000E944C1A80E29AE00E94621A60E177E2F6
:100E600080E090E00E94370E2A960FB6F894DEBF1D
:100E70000FBECDBFDF91CF910895CF93DF93EC01EB
:100E800061110FC0188285E29AE00E94C81ACE0153
:100E90000E94121061E086E10E94400F60E086E14E
:100EA0000BC081E08883CE010E94121061E086E0D1
:100EB0000E94400F60E086E00E94590F80E0DF91C1
:100EC000CF9108954F925F926F927F928F929F92EF
:100ED000AF92BF92CF92DF92EF92FF920F931F9348
:100EE000CF93DF93CDB7DEB7AD970FB6F894DEBFE3
:100EF0000FBECDBF5C012C0120EF421A2DEF520A2C
:100F00008AEFF20111928A95E9F74E01FFE18F0E07
:100F1000911C8FE0F401282F11922A95E9F73E01E8
:100F200030E1630E711CF301282F11922A95E9F725
:100F30008E010F5F1F4FF80111928A95E9F7E6E5E0
:100F4000F2E0859194919F938F935F924F920E94CC
:100F50007429EAE7F2E0859194919F938F939F9291
:100F60008F920E947429E8E9F2E0859194919F9311
:100F70008F937F926F920E947429E2E7F2E085914D
:100F800094919F938F931F930F930E947429F8EE6F
:100F9000CF2EF3E0DF2EE12CF12C9301A401B2015E
:100FA000C5010E9461110FB6F894DEBF0FBECDBF20
:100FB000813009F402C0823031F4F501E357FA4F71
:100FC000808380E005C0833011F481E001C082E0BD
:100FD000AD960FB6F894DEBF0FBECDBFDF91CF91B7
:100FE0001F910F91FF90EF90DF90CF90BF90AF9047
:100FF0009F908F907F906F905F904F9008951F9378
:10100000CF93DF93EC01162F40E051EE60E070E0EB
:1010100049835A836B837C831883612F0E943D0729
:1010200068EC70E080E090E00E94370E11110FC074
:10103000188285E29AE00E94D81ACE010E94E50F3C
:1010400061E086E10E94400F61E086E129C087E20D
:101050000E949F0F0197A9F48091A00981110DC0F2
:101060008DE899E00E9470198DE899E00E945A1964
:101070008DE899E00E94F81404C08DE899E00E9480
:101080005A1981E0888385E29AE00E94B01ACE0165
:101090000E94E50F61E086E00E94400F61E086E07B
:1010A0000E94590F6CE271E080E090E00E94370EE0
:1010B000CE01DF91CF911F910C9462074F925F9206
:1010C0006F927F928F929F92AF92BF92CF92DF9258
:1010D000EF92FF920F931F93CF93DF93CDB7DEB7BD
:1010E0006E970FB6F894DEBF0FBECDBF5C013B011B
:1010F0006C0120EFC21A2DEFD20A8AEFD6011D92A1
:101100008A95E9F7FE0170968FE0DF01282F1D9286
:101110002A95E9F7FE013196DF011D928A95E9F7DC
:10112000FB01DB010D900020E9F75197A617B707E7
:1011300009F05EC080E09191292F20532A3038F0C9
:101140002151263020F09156963008F051C08F5F23
:10115000803189F7E6EEF1E0859194917F926F926C
:101160009F938F93DF92CF920E947429E0E7F2E081
:10117000859194919F938F934E01B0E18B0E911CBA
:101180009F928F920E947429E2E7F2E085919491F8
:101190009F938F9344244394512C4C0E5D1E5F9279
:1011A0004F920E94742914E6E12EF12C00E010E029
:1011B0009201A401B601C5010E9478110FB6F894FE
:1011C000DEBF0FBECDBF813079F4C501845E9C4F78
:1011D00021E1DC011D922A95E9F741E150E0B301DC
:1011E0000E94F92880E007C0823021F481E003C02A
:1011F00087E001C082E06E960FB6F894DEBF0FBEA6
:10120000CDBFDF91CF911F910F91FF90EF90DF90B5
:10121000CF90BF90AF909F908F907F906F905F9096
:101220004F9008954F925F926F927F928F929F920C
:10123000AF92BF92CF92DF92EF92FF920F931F93E4
:10124000CF93DF93CDB7DEB76E970FB6F894DEBFBE
:101250000FBECDBF5C013B016C0120EFC21A2DEF28
:10126000D20A8AEFD6011D928A95E9F7FE0170969F
:101270008FE0DF01282F1D922A95E9F7FE013196B4
:10128000DF011D928A95E9F7FB01DB010D9000203B
:10129000E9F75197A617B70709F05EC080E0919172
:1012A000292F20532A3038F02151263020F0915632
:1012B000963008F051C08F5F803189F7E8EEF1E099
:1012C000859194917F926F929F938F93DF92CF92AB
:1012D0000E947429E0E7F2E0859194919F938F93A7
:1012E0004E01B0E18B0E911C9F928F920E94742947
:1012F000E2E7F2E0859194919F938F934424439485
:10130000512C4C0E5D1E5F924F920E94742914E680
:10131000E12EF12C00E010E09201A401B601C5011C
:101320000E9478110FB6F894DEBF0FBECDBF81309A
:1013300079F4C501835D9C4F21E1DC011D922A9562
:10134000E9F741E150E0B3010E94F92880E007C0CD
:10135000823021F481E003C087E001C082E06E9614
:101360000FB6F894DEBF0FBECDBFDF91CF911F91B6
:101370000F91FF90EF90DF90CF90BF90AF909F9034
:101380008F907F906F905F904F9008954F925F92F3
:101390006F927F928F929F92AF92BF92CF92DF9285
:1013A000EF92FF920F931F93CF93DF93CDB7DEB7EA
:1013B0006E970FB6F894DEBF0FBECDBF5C013B0148
:1013C0006C0120EFC21A2DEFD20A8AEFD6011D92CE
:1013D0008A95E9F7FE0170968FE0DF01282F1D92B4
:1013E0002A95E9F7FE013196DF011D928A95E9F70A
:1013F000FB01DB010D900020E9F79197A617B707D5
:1014000009F05EC080E09191292F20532A3038F0F6
:101410002151263020F09156963008F051C08F5F50
:10142000803289F7EEEEF1E0859194917F926F9290
:101430009F938F93DF92CF920E947429E0E7F2E0AE
:10144000859194919F938F934E01B0E18B0E911CE7
:101450009F928F920E947429E2E7F2E08591949125
:101460009F938F9344244394512C4C0E5D1E5F92A6
:101470004F920E94742914E6E12EF12C00E010E056
:101480009201A401B601C5010E9478110FB6F8942B
:10149000DEBF0FBECDBF813079F4C50180589C4FAF
:1014A00021E2DC011D922A95E9F741E250E0B30107
:1014B0000E94F92880E007C0823021F481E003C057
:1014C00087E001C082E06E960FB6F894DEBF0FBED3
:1014D000CDBFDF91CF911F910F91FF90EF90DF90E3
:1014E000CF90BF90AF909F908F907F906F905F90C4
:1014F0004F9008956F927F928F929F92AF92BF927A
:10150000CF92DF92EF92FF920F931F93CF93DF93CF
:10151000CDB7DEB76E970FB6F894DEBF0FBECDBF66
:101520003C016C0120EFC21A2DEFD20A8AEFF601BE
:1015300011928A95E9F75E01F0E1AF0EB11C8FE0E0
:10154000F501282F11922A95E9F788248394912C8C
:101550008C0E9D1EF40111928A95E9F7EEEDF1E0F3
:10156000859194919F938F93DF92CF920E947429DB
:10157000E0E7F2E0859194919F938F93BF92AF92B1
:101580000E947429E2E7F2E0859194919F938F93F2
:101590009F928F920E94742910EAE12E1FE0F12E93
:1015A00000E010E09401A501B601C3010E9478118A
:1015B0000FB6F894DEBF0FBECDBF813021F0823070
:1015C00021F481E003C080E001C082E06E960FB696
:1015D000F894DEBF0FBECDBFDF91CF911F910F9169
:1015E000FF90EF90DF90CF90BF90AF909F908F9043
:1015F0007F906F9008953F924F925F926F927F928B
:101600008F929F92AF92BF92CF92DF92EF92FF9212
:101610000F931F93CF93DF93CDB7DEB7AD970FB680
:10162000F894DEBF0FBECDBF3C012C0120EF421A63
:101630002DEF520A8AEFF20111928A95E9F75E01C5
:10164000FFE1AF0EB11CBFE03B2EF501232D11923F
:101650002A95E9F74E0130E1830E911CF401232D08
:1016600011922A95E9F78E010F5F1F4FF801232D84
:1016700011922A95E9F7E6E6F2E0859194919F931D
:101680008F935F924F920E947429E0E7F2E0859178
:1016900094919F938F93BF92AF920E947429E2E737
:1016A000F2E0859194919F938F939F928F920E94E5
:1016B0007429E2E9F2E0859194919F938F931F93AF
:1016C0000F930E94742984EFC82EDD24D394E12C5B
:1016D000F12C9401A501B201C3010E9461110FB662
:1016E000F894DEBF0FBECDBF813081F5F501232D0B
:1016F00011922A95E9F7ECE7F2E0859194919F9396
:101700008F93BF92AF920E947429F40111923A9480
:10171000E9F7E6E9F2E0859194919F938F939F9288
:101720008F920E94742900E21EE420E030E0A401C0
:10173000B501C3010E945E1291E00FB6F894DEBFBE
:101740000FBECDBF813059F490E009C0823021F046
:10175000833021F493E003C091E001C092E0892F2F
:10176000AD960FB6F894DEBF0FBECDBFDF91CF911F
:101770001F910F91FF90EF90DF90CF90BF90AF90AF
:101780009F908F907F906F905F904F903F900895C3
:101790002F923F924F925F926F927F928F929F9281
:1017A000AF92BF92CF92DF92EF92FF920F931F936F
:1017B000CF93DF93CDB7DEB7C055D1090FB6F894FC
:1017C000DEBF0FBECDBF5C01FC01EB57FA4F1082AC
:1017D0001C0120EF221A2DEF320A8AEFD1011D924F
:1017E0008A95E9F7FE01FD9684E1DF01282F1D921D
:1017F0002A95E9F7FE01B996DF01282F1D922A9557
:10180000E9F7FE017596DF011D928A95E9F7603EC2
:1018100008F017C1FA0101900020E9F73197E41BA5
:10182000F50B20E010C0DA01A80FB91F8C91982F9A
:1018300090539A3038F09151963020F0815686308E
:1018400008F0FFC02F5F822F90E08E179F0758F39C
:10185000E8EDF1E0859194915F934F931F926F9320
:101860009F938F933F922F920E947429E0E7F2E0BA
:10187000859194919F938F932E01BDE34B0E511C44
:101880005F924F920E947429E2E7F2E08591949171
:101890009F938F934E01E9E28E0E911C9F928F923F
:1018A0000E947429E4E9F2E0859194919F938F93CB
:1018B0003E01F5E16F0E711C7F926F920E947429B8
:1018C00028EEC22E23E0D22EE12CF12C83019401CC
:1018D000A201B101C5010E9461110FB6F894DEBFEB
:1018E0000FBECDBF813009F09EC084E1D201E82F48
:1018F0001D92EA95E9F7D401E82F1D92EA95E9F7E0
:10190000D301E82F1D92EA95E9F78E010F5F1F4F73
:10191000D8011D928A95E9F7E6E7F2E08591949166
:101920009F938F935F924F920E947429E0E8F2E0B8
:1019300085919491BC01C4010E94D628EEE8F2E0A2
:1019400085919491BC01C3010E94D628E0E9F2E0A0
:1019500085919491BC01C8010E94D62890E2C92EBD
:101960009EE4D92EE12CF12C9301A401B201C50112
:101970000E949111182F0F900F900F900F908130AF
:10198000E9F524EF31E040E050E06CEA73E0C50196
:101990000E947312F501E25FFD4F20813181232BFC
:1019A00041F16BEA73E0C5010E960E94DD280E94AA
:1019B000B828F501E15EFA4F80836BEA73E080E0BE
:1019C00090E00E94DD28BC01F501E05EFA4F85E65B
:1019D000DF011D928A95E9F744E650E0CF010E94AD
:1019E000F928C5010E947A0AF501EB57FA4F1083D6
:1019F00003C0C5010E947A0A80E024C08230C9F386
:101A0000833029F4C5010E947A0A85E01BC0843026
:101A100029F4C5010E947A0A84E014C0C5010E941D
:101A20007A0A82E00FC0823029F4C5010E947A0A46
:101A300081E008C0833091F7C5010E947A0A86E0F0
:101A400001C087E0C05BDF4F0FB6F894DEBF0FBE6A
:101A5000CDBFDF91CF911F910F91FF90EF90DF905D
:101A6000CF90BF90AF909F908F907F906F905F903E
:101A70004F903F902F90089580E092ECA1E0B0E06D
:101A80008093F5039093F603A093F703B093F803C4
:101A900088E893E1A0E0B0E08093F9039093FA0323
:101AA000A093FB03B093FC0384E690E0A0E0B0E0D9
:101AB0008093FD039093FE03A093FF03B093000473
:101AC00081E08093010408951F920F920FB60F9248
:101AD00011240BB60F922F933F934F935F936F9305
:101AE0007F938F939F93AF93BF93EF93FF93F8945C
:101AF00081E080934E02E0E6F0E0808180688083A0
:101B000080818F7B808360E083E00E94590F78940E
:101B1000FF91EF91BF91AF919F918F917F916F91C5
:101B20005F914F913F912F910F900BBE0F900FBE81
:101B30000F901F9018951F920F920FB60F921124BD
:101B40008F939F93AF93BF938091C30C9091C40CDC
:101B5000A091C50CB091C60C0196A11DB11D80933A
:101B6000C30C9093C40CA093C50CB093C60CBF914A
:101B7000AF919F918F910F900FBE0F901F9018956E
:101B80001F920F920FB60F9211248F939F93AF93D2
:101B9000BF938091C70C9091C80CA091C90CB091D3
:101BA000CA0C0196A11DB11D8093C70C9093C80C5F
:101BB000A093C90CB093CA0CBF91AF919F918F9124
:101BC0000F900FBE0F901F9018958F929F92AF921B
:101BD000BF92CF92DF92EF92FF920F931F93CF931A
:101BE000DF932FB7F8948091C30C9091C40CA0910F
:101BF000C50CB091C60C2FBF9C01AD0160E070E038
:101C000080E090E001E00E943D284901D42FC52FDB
:101C1000B62FA72FF82FE92F02E00E943D28590187
:101C20006A017B018C0194014D2F5C2F6B2F7A2F61
:101C30008F2F9E2F0E944C28E9E0AE2EB12CC12C94
:101C4000D12CE12CF12C00E010E00E94E027952F30
:101C5000B901842FDF91CF911F910F91FF90EF90E9
:101C6000DF90CF90BF90AF909F908F9008958F920C
:101C70009F92AF92BF92CF92DF92EF92FF924B0171
:101C80005C0107C00E94E50D6C157D058E059F0562
:101C900020F40E94E50D6B017C010E94E50D6C199A
:101CA0007D098E099F09681579058A059B0550F302
:101CB000FF90EF90DF90CF90BF90AF909F908F906C
:101CC0000895BC01049768F080E090E00E946826C7
:101CD00026E636E646EE5FE30E94F6260E943C26A4
:101CE00002C0660F771F6150710961F06150710980
:101CF00049F0FB01EE0FFF1F31978FB7F894319732
:101D0000F1F78FBF0895789484B7877F84BF1092CE
:101D1000C30C1092C40C1092C50C1092C60C84B562
:101D2000826084BD84B5816084BD85B5826085BDD7
:101D300085B5816085BDEEE6F0E0808181608083BD
:101D4000E1E8F0E08081826080838081816080832F
:101D5000E0E8F0E0808181608083E1EBF0E0808169
:101D600084608083E1E9F0E0808184608083E0EB3F
:101D7000F0E0808181608083E0E9F0E08081816033
:101D80008083E4E6F0E080818E7F8083ECE7F0E002
:101D900080818F778083808180648083EAE7F0E0B0
:101DA000808184608083808182608083808180687C
:101DB00080831092C1001092C90008959091820909
:101DC000982B9093820980FF32C0809164008E7FAF
:101DD0008093640080917C008F7780937C00809159
:101DE0007C00806480937C0080917A008460809382
:101DF0007A0080917A00826080937A0080917A00E4
:101E0000806880937A00809164008F77809364006B
:101E1000809164008B7F80936400809164008D7F4B
:101E200080936400809165008E7F809365000895A3
:101E3000282F20959091820992239093820980FF08
:101E40001EC080917A008F7780937A008091640021
:101E50008160809364008091640080688093640056
:101E6000809164008460809364008091640082604B
:101E7000809364008091650081608093650008957F
:101E800090E0FC01E45DF44F2491FC01E15AF44F31
:101E9000E491EE2369F0F0E0EE55F44FA491B0E048
:101EA0008C91611103C02095822301C0822B8C93F9
:101EB000089590E0FC01E750F54F2491FC01E45DAA
:101EC000F44F3491FC01E15AF44F84918823B1F12D
:101ED000222331F1233021F4909180009F7705C0B7
:101EE000243031F4909180009F7D9093800018C041
:101EF000213019F494B59F7704C0223021F494B5B1
:101F00009F7D94BD0DC0263021F49091B0009F7745
:101F100005C0273029F49091B0009F7D9093B000C8
:101F2000E82FF0E0E656F44FA491B0E08C916111F7
:101F300003C03095832301C0832B8C93089590E0D8
:101F4000FC01E750F54F2491FC01E45DF44F34911E
:101F5000FC01E15AF44F8491882399F1222331F155
:101F6000233021F4909180009F7705C0243031F414
:101F7000909180009F7D9093800018C0213019F4CB
:101F800094B59F7704C0223021F494B59F7D94BD11
:101F90000DC0263021F49091B0009F7705C0273006
:101FA00029F49091B0009F7D9093B000E82FF0E06D
:101FB000EE56F44FE491F0E08081832321E030E09D
:101FC00011F420E030E0C9010895CF93DF93EC01D4
:101FD00069817A818B819C8148810E94EC1D888176
:101FE00081110AC08091CB109091CC10A091CD109E
:101FF000B091CE1084600BC0813089F48091CB10F9
:102000009091CC10A091CD10B091CE1088608093AB
:10201000CB109093CC10A093CD10B093CE10DF9145
:10202000CF910895CF93DF93EC0188810E94601EC9
:10203000888181110AC08091CB109091CC10A09121
:10204000CD10B091CE108B7F0BC0813089F4809180
:10205000CB109091CC10A091CD10B091CE10877F75
:102060008093CB109093CC10A093CD10B093CE1052
:10207000DF91CF910895AF92BF92CF92DF92EF920E
:10208000FF920F931F93CF93DF9300D0CDB7DEB7AE
:102090007B01D9010D900020E9F75D0181E0A81ACC
:1020A000B108A21AB30A4A155B05C0F000E010E0BF
:1020B0006A01CA18DB080FC0A501B901C701800F6A
:1020C000911F29833A830E94E12829813A81009750
:1020D00039F00F5F1F4FC016D10670F780E001C0C6
:1020E00081E00F900F90DF91CF911F910F91FF90A2
:1020F000EF90DF90CF90BF90AF9008952F923F92D6
:102100004F925F926F927F928F929F92AF92BF9207
:10211000CF92DF92EF92FF920F931F93CF93DF93B3
:10212000CDB7DEB72A970FB6F894DEBF0FBECDBF8E
:102130009A8789874B0158874F8319011C830B832A
:10214000FE82ED82FC018585882319F080810E9442
:10215000E31EE985FA856081C4010E947A1FE98542
:10216000FA8561857285838594850E94370E8984FE
:102170009A84FEE08F0E911C80E092E0F4019C01B5
:10218000119221503040E1F709851A85025F1D4FF9
:10219000F801118210820E94E50D2B013C01E12C17
:1021A000F12C1A8309835FC0E985FA8580810E943A
:1021B0008E1E892BC9F0FFEFEF16F1E0FF06A0F4A9
:1021C000E985FA8580810E94AA1EE985FA85EE0DCF
:1021D000FF1D8687FFEFEF1AFF0AE981FA818081F0
:1021E0009181019691838083E981FA810081118137
:1021F0002F813885A801B40189859A850E943B10FA
:1022000081113FC02114310449F09101A801B401AA
:1022100089859A850E943B10811135C02B813C81B4
:102220002115310541F0A801B40189859A850E94E4
:102230003B1081112AC08D819E81009749F09C013D
:10224000A801B40189859A850E943B1081111FC0A5
:102250000E94E50D641575058605970520F40E941A
:10226000E50D2B013C010E94E50D641975098609F5
:1022700097096A157B058C059D0508F495CF80E0CC
:1022800007C081E005C082E003C083E001C084E0B4
:102290002A960FB6F894DEBF0FBECDBFDF91CF9167
:1022A0001F910F91FF90EF90DF90CF90BF90AF9074
:1022B0009F908F907F906F905F904F903F902F9066
:1022C0000895AF92BF92CF92DF92EF92FF920F9359
:1022D0001F9356016701E12CF12C0E947E101F9183
:1022E0000F91FF90EF90DF90CF90BF90AF90089547
:1022F000AF92BF92CF92DF92EF92FF920F931F9314
:1023000057016801E12CF12C00E010E00E947E10E2
:102310001F910F91FF90EF90DF90CF90BF90AF9003
:1023200008952F923F924F925F926F927F928F9279
:102330009F92AF92BF92CF92DF92EF92FF920F9354
:102340001F93CF93DF93CDB7DEB72A970FB6F894DC
:10235000DEBF0FBECDBF9A87898778876F835C8386
:102360004B8319011E830D838C01025F1F4F80E098
:1023700092E0F8019C01119221503040E1F749842C
:102380005A8432EF431A3DEF530AF2011182108250
:102390000E94E50D4B015C01612C712C5A8249822F
:1023A0005FC0E985FA8580810E948E1E892BC9F065
:1023B000FFEF6F16F1E07F06A0F4E985FA858081D2
:1023C0000E94AA1EE985FA85E60DF71D8687FFEFB4
:1023D0006F1A7F0AE981FA81808191810196918348
:1023E0008083E981FA81408051802F813885A20164
:1023F000B80189859A850E943B1081113FC02B81CD
:102400003C812115310541F0A201B80189859A85E9
:102410000E943B10811134C02114310449F0910114
:10242000A201B80189859A850E943B1081112AC0BA
:102430008D819E81009749F09C01A201B801898598
:102440009A850E943B1081111FC00E94E50D6815FE
:1024500079058A059B0520F40E94E50D4B015C017E
:102460000E94E50D681979098A099B096C157D059B
:102470008E059F0508F495CF80E007C081E005C078
:1024800082E003C083E001C084E02A960FB6F8948E
:10249000DEBF0FBECDBFDF91CF911F910F91FF9097
:1024A000EF90DF90CF90BF90AF909F908F907F90F4
:1024B0006F905F904F903F902F900895CF92DF9252
:1024C000EF92FF920F931F936801790100E010E0F3
:1024D00020E030E00E9491111F910F91FF90EF904A
:1024E000DF90CF900895CF92DF92EF92FF920F93FB
:1024F0001F9369017A0100E010E020E030E040E045
:1025000050E00E9491111F910F91FF90EF90DF908A
:10251000CF9008950E94830E85E29AE00E940C1CE1
:10252000853440F061E081E30E94400F61E081E387
:102530000E94590F61E070E085E29AE00E94E81A7B
:102540008130B1F48091CB109091CC10A091CD103E
:10255000B091CE1090688093CB109093CC10A09344
:10256000CD10B093CE1060E081E090E00E94B62BD9
:1025700087E20E949F0F892B59F160E070E085E2AD
:102580009AE00E94E81A8A3019F5C1C06CE3629F94
:10259000A001639F500D1124840F951F0EC02115BB
:1025A000310559F06CE3629FA001639F500D112427
:1025B0009A01205F314F820F931F039748F4809157
:1025C000DA109091DB1080629093DB108093DA1028
:1025D0008DE899E00E9470198DE899E00E94311908
:1025E0008DE899E00E9440198DE899E00E94F81466
:1025F00063E070E080E090E00E94370E8091CB10A5
:102600009091CC10A091CD10B091CE10A1FF5EC0E2
:1026100063E070E080E090E00E94370E61E086E1C8
:102620000E94400F63E070E080E090E00E94370E6F
:1026300061E086E10E94590F63E070E080E090E085
:102640000E94370E0E94A61363E070E080E090E0E5
:102650000E94370E81E00E94C91363E070E080E0C1
:1026600090E00E94370E84E00E94D71363E070E090
:1026700080E090E00E94370E80E00E94D21363E079
:1026800070E080E090E00E94370E0E94C51363E086
:1026900070E080E090E00E94370E66E087E899E005
:1026A0000E94E21363E070E080E090E00E94370E49
:1026B00061E086E10E94400F60E086E10E94590FD0
:1026C00063E070E080E090E00E94370E63E070E02D
:1026D00080E090E00E94370E85E29AE00E94E61BBF
:1026E0006093830970938409809385099093860988
:1026F0008091830990918409A0918509B091860900
:102700000E94AD280E940D060E94F106FDCF8DE8C3
:1027100099E00E9470198DE899E00E94C2178DE837
:1027200099E00E94B7178091A60990E02091A8092E
:10273000821B91092091A50930E04091A909241B31
:102740003109121613060CF421CF29CF61E08EE176
:102750000E94400F61E08FE10E94400F61E08DE137
:102760000E94400F60E08EE10E94590F60E08FE10F
:102770000E94590F61E08DE10E94590F8CB5806174
:102780008CBD8CB580648CBD08958CB58F7B8CBD61
:102790000895811103C08CB5806202C08CB58F7D15
:1027A0008CBD08959CB5937F982B9CBD08952CB546
:1027B000982F93702C7F922B9CBD9DB580FB90F938
:1027C0009DBD0895CF93C62F61E08DE10E94400F1B
:1027D00061E082E20E94400F61E08DE10E94590FAA
:1027E00061E082E20E94590F8091CB109091CC1051
:1027F000A091CD10B091CE10A2FF08C061E088E09A
:102800000E94400F61E088E00E94590F8091CB1038
:102810009091CC10A091CD10B091CE1096FF08C031
:1028200061E089E00E94400F61E089E00E94590F59
:102830008091CB109091CC10A091CD10B091CE1082
:10284000A3FF08C061E082E00E94400F61E082E0E7
:102850000E94590F8091CB109091CC10A091CD1077
:10286000B091CE10A4FF08C061E082E20E94400F48
:1028700061E082E20E94590FC330C9F020F4C130F8
:1028800061F070F407C0C53061F1F0F0C63009F0B6
:1028900067C033C060E08DE160C060E082E25DC08F
:1028A00085E29AE00E94B01A60E08CE256C0809106
:1028B000CB109091CC10A091CD10B091CE10A2FF72
:1028C0004FC060E088E049C08091CB109091CC105F
:1028D000A091CD10B091CE1096FF42C060E089E08B
:1028E0003CC08091CB109091CC10A091CD10B091B4
:1028F000CE10A3FF35C060E02FC061E08DE10E94E3
:10290000590F61E082E20E94590F8091CB109091A3
:10291000CC10A091CD10B091CE10A2FF04C061E008
:1029200088E00E94590F8091CB109091CC10A0911B
:10293000CD10B091CE1096FF04C061E089E00E94F6
:10294000590F8091CB109091CC10A091CD10B091E7
:10295000CE10A3FF05C061E082E0CF910C94590F27
:10296000CF910895109288091092870910928909D1
:1029700010928A0910928B0910928C090895809107
:102980007B0C882341F080912A0A811104C08FE2D8
:102990009AE00C94861C08950F931F93CF93DF93B6
:1029A000EC01042F68A761E080E30E94400F18A5A6
:1029B000112379F0113091F461E080E30E94590F06
:1029C000013019F482E08B8B09C0011107C01B8B09
:1029D00005C060E080E30E94590F1B8A6AE070E046
:1029E00080E090E0DF91CF911F910F910C94370E12
:1029F000CF93DF93EC010E94BF1440E060E0CE0172
:102A0000DF91CF910C94CC14FC01148A158A168A9C
:102A1000178A108E118E128E138E148E158E168EAE
:102A2000178E10A211A212A213A214A215A216A20E
:102A300017A20895EF92FF920F931F93CF93DF9306
:102A4000CDB7DEB7EC970FB6F894DEBF0FBECDBFA3
:102A50008C01ECE2F9E085919491BC01EE24E394C1
:102A6000F12CEC0EFD1EC7010E94D628EEE2F9E023
:102A700085919491BC01CE0189960E94D628F801D7
:102A80008689843009F466C040F4823029F108F068
:102A90004BC0813009F0B6C009C0863009F486C049
:102AA00008F46EC0873009F0ADC096C0F801818D82
:102AB0001F928F93808D1F928F9387891F928F9380
:102AC000828D1F928F9385891F928F9384891F9285
:102AD0008F938AEB93E015C0F801818D1F928F933D
:102AE000808D1F928F9387891F928F93828D1F9263
:102AF0008F9385891F928F9384891F928F938EEB7A
:102B000093E09F938F93FF92EF921F9284E68F93AF
:102B1000C80189969F938F930E9437290FB6F89426
:102B2000DEBF0FBECDBF81C0F801818D1F928F9394
:102B3000808D1F928F9387891F928F93828D1F9212
:102B40008F9385891F928F9384891F928F9382EC34
:102B500093E0D7CFF801818D1F928F93808D1F92C4
:102B60008F9387891F928F93828D1F928F93858970
:102B70001F928F9384891F928F9386EC93E0C1CF2D
:102B8000F801818D1F928F93808D1F928F9387897B
:102B90001F928F93828D1F928F9385891F928F939F
:102BA00084891F928F938AEC93E0ABCFF801818DDB
:102BB0001F928F93808D1F928F9387891F928F937F
:102BC000828D1F928F9385891F928F9384891F9284
:102BD0008F938EEC93E095CFF801818D1F928F93A8
:102BE000808D1F928F9387891F928F93828D1F9262
:102BF0008F9385891F928F9384891F928F9382ED83
:102C000093E07FCFCE0189969F938F931F9284E6A6
:102C10008F93C80189969F938F930E9437290F90B5
:102C20000F900F900F900F900F90075D1F4FC801EE
:102C3000EC960FB6F894DEBF0FBECDBFDF91CF91FB
:102C40001F910F91FF90EF900895CF92DF92EF9236
:102C5000FF920F931F93CF93DF938C01C62E809129
:102C60007B0C811104C085E79CE00E94922468E6F9
:102C700070E085E79CE00E94BF2460E070E085E79B
:102C80009CE00E94EB2585E79CE00E94ED2543E156
:102C900050E068E670E085E79CE00E942726E12C82
:102CA000F12CC0E0D0E0D12CE4C085E79CE00E948C
:102CB000C724F801EC0FFD1F8083C630D10509F44D
:102CC00067C098F4C230D10509F43EC038F42097AB
:102CD00029F1C130D10509F0C7C02BC0C430D105DE
:102CE00009F440C008F049C03AC0CA30D10509F41F
:102CF00084C048F4282F30E0C830D10509F461C001
:102D000008F06DC050C0CC30D10509F492C008F471
:102D100082C0CD30D10509F0A7C099C0982F9295F7
:102D20009F708F702AE0929F800D1124F801818F8F
:102D30009BC0982F92959F708F70FAE09F9F800D97
:102D40001124F801808F90C0982F92959F708F70FA
:102D5000FAE09F9F800D1124F801878B85C0F80150
:102D6000868B82C0982F92959F708F70FAE09F9FFC
:102D7000800D1124F801828F77C0982F92959F7053
:102D80008F70FAE09F9F800D1124F801858B6CC035
:102D9000982F92959F708F70FAE09F9F800D11245D
:102DA000F801848B61C054E0359527955A95E1F779
:102DB00027708F70FAE02F9F800D1124F801838F08
:102DC00053C044E0359527954A95E1F727708F70F9
:102DD000FAE02F9F800D1124F801848F45C094E004
:102DE000359527959A95E1F723708F70FAE02F9F1C
:102DF000800D1124F801858F37C0282F2695269540
:102E000026952670922F990F990F920F8F70980F19
:102E1000F801968F29C0282F2695269526952E7085
:102E2000922F990F990F920F8F70980FF801978F2B
:102E30001BC0282F2695269526952670922F990F30
:102E4000990F920F8F70980FF80190A30DC0282F43
:102E50002695269526952670922F990F990F920FF9
:102E60008F70980FF80191A3219603C0FFEFEF1A1E
:102E7000FF0ACC16DD0658F02AE0E216F10438F419
:102E800085E79CE00E94C124882381F30ECFDF9167
:102E9000CF911F910F91FF90EF90DF90CF90089509
:102EA0001F93CF93DF93EC01162F80917B0C811140
:102EB00004C085E79CE00E94922468E670E085E704
:102EC0009CE00E94BF24612F85E79CE00E94BF2503
:102ED000C10FD11D688185E79CE00E94BF2585E771
:102EE0009CE0DF91CF911F910C94ED25FF920F9301
:102EF0001F93CF93DF938C01F62E80917B0C811171
:102F000004C085E79CE00E94922468E670E085E7B3
:102F10009CE00E94BF246F2D85E79CE00E94BF25A6
:102F200085E79CE00E94ED2541E050E068E670E016
:102F300085E79CE00E942726CBE0D0E085E79CE077
:102F40000E94C124811102C02197C1F785E79CE04E
:102F50000E94C724F801EF0DF11D808385E79CE0F6
:102F6000DF91CF911F910F91FF900C94ED25CF939E
:102F7000DF93EC0166E00E942516CE01DF91CF9130
:102F80000C941A15CF92DF92EF92FF920F931F933A
:102F9000CF93DF93CDB7DEB7C857D1090FB6F894FA
:102FA000DEBF0FBECDBF7C016AE00E9425168701FF
:102FB000075D1F4F84E6F80111928A95E9F7EAE070
:102FC000F9E085919491BC01CE018F5A9F4F0E94E8
:102FD000D628BE016F5A7F4FC8010E94EE28F70124
:102FE00082A1823009F46AC030F4882369F081300C
:102FF00009F00BC122C0843009F4C7C008F493C0A3
:10300000853009F002C1F0C0ECE0F9E085919491BF
:10301000BC01CE018F5A9F4F0E94D628BE016F5A25
:103020007F4FC8010E94EE28EAE1F9E08591949172
:103030006E01F9E2CF0ED11C18C0EEE0F9E08591E7
:103040009491BC01CE018F5A9F4F0E94D628BE0199
:103050006F5A7F4FC8010E94EE28EAE1F9E085919E
:1030600094916E01E9E2CE0ED11CBC01C6010E9412
:10307000D628F701838D1F928F93848D1F928F9393
:10308000858D1F928F93868D1F928F93DF92CF92A3
:103090001F9288E28F93EE24E394F12CEC0EFD1E38
:1030A000FF92EF920E943729B701C8010E94EE28D3
:1030B0000FB6F894DEBF0FBECDBFC2C0E0E1F9E0AD
:1030C00085919491BC01CE018F5A9F4F0E94D628C2
:1030D000BE016F5A7F4FC8010E94EE28ECE1F9E073
:1030E000859194916E01E9E2CE0ED11CBC01C6011E
:1030F0000E94D628F701838D1F928F93848D1F9293
:103100008F93858D1F928F93DF92CF921F9288E2CB
:103110008F93EE24E394F12CEC0EFD1EFF92EF92C0
:103120000E943729C1CFE2E1F9E085919491BC0179
:10313000CE018F5A9F4F0E94D628BE016F5A7F4FF3
:10314000C8010E94EE28EEE1F9E0859194916E01AC
:10315000E9E2CE0ED11CBC01C6010E94D628F701BF
:10316000838D1F928F93848D1F928F93DF92CF92C6
:103170001F9288E28F93EE24E394F12CEC0EFD1E57
:10318000FF92EF920E9437298FCFE4E1F9E0859119
:103190009491BC01CE018F5A9F4F0E94D628BE0148
:1031A0006F5A7F4FC8010E94EE28E0E2F9E0859156
:1031B00094916E01E9E2CE0ED11CBC01C6010E94C1
:1031C000D628F701838D1F928F93DF92CF921F92A3
:1031D00088E28F93EE24E394F12CEC0EFD1EFF9217
:1031E000EF920E94372960CFE6E1F9E08591949152
:1031F000BC01CE018F5A9F4F0E94D628BE016F5A44
:103200007F4FC8010E94EE281BC0E8E1F9E08591DC
:1032100094917E01E1E5EE0EF11CBC01C7010E9414
:10322000D628FF92EF921F9284E68F931F930F93FD
:103230000E9437290F900F900F900F900F900F90D2
:10324000C801C858DF4F0FB6F894DEBF0FBECDBF20
:10325000DF91CF911F910F91FF90EF90DF90CF9072
:103260000895CF93DF93EC016EE00E9476178E8570
:103270008E7F8E876EE0CE01DF91CF910C94501738
:10328000CF93DF93EC016EE00E9476178E858D7FE1
:103290008E876EE0CE01DF91CF910C945017CF93C3
:1032A000DF93EC016FE00E9476178F858370DF91CA
:1032B000CF910895CF93DF93EC010E944F1988239B
:1032C00019F0CE56DF4F888380919C098C7F8093C4
:1032D0009C096FE08DE899E0DF91CF910C94501735
:1032E000CF93DF93EC0140E061E00E94CC14CE016B
:1032F0000E945A19CE010E9404156DE0CE010E9471
:10330000251661E08BE20E94400F60E08BE2DF91C6
:10331000CF910C94590F10921E0A1092A009089593
:10332000DC018091C50011968C9311978091C400A7
:1033300012968C931297E2ECF0E0808113968C93B6
:1033400013978091CA0014968C93149780818F7D77
:10335000808380818F7E80838081877F80834C9172
:1033600060E072EC81E090E00E94EC1D61E087E19A
:103370000E94590F60E08BE00C94590FCF93DF93BC
:10338000EC014091CB105091CC106091CD10709118
:10339000CE1063E070E080E090E042FF07C00E9442
:1033A000370E61E08BE00E94590F02C00E94370E79
:1033B00089818093C5008A818093C4008B8180932A
:1033C000C2008C818093CA00DF91CF910895EF9263
:1033D000FF920F931F93CF93DF938C01EB010E9419
:1033E00090197E0188E1E81A8CEFF80AFE01219617
:1033F0008491882339F0F80160810E946D1FCE15F9
:10340000DF05A1F7C8010E94BE1960E070E0CB01A2
:10341000DF91CF911F910F91FF90EF900895AF92A0
:10342000BF92DF92EF92FF920F931F93CF93DF93A0
:10343000EC01142FD52E7B0159010E949019A11483
:10344000B10429F46881812F0E946D1F16C08AE0A3
:10345000A816B10439F44881612F7D2DC7010E945F
:1034600015200BC09501442737FD4095542F088146
:10347000612F7D2DC7010E948A1F88810E946F1FC6
:10348000CE01DF91CF911F910F91FF90EF90DF90D0
:10349000BF90AF900C94BE190F931F93CF93DF93FF
:1034A000EC018B010E9490196881C8010E947A1F6B
:1034B00088810E946F1FCE01DF91CF911F910F91E4
:1034C0000C94BE19CF93DF93EC010E949019888170
:1034D0000E946F1FCE01DF91CF910C94BE19EF9225
:1034E000FF920F931F93CF93DF9300D0CDB7DEB73A
:1034F0007C010E94E7198C01C70169837A830E94CD
:10350000621A69817A81C8010F900F90DF91CF9183
:103510001F910F91FF90EF9008951092200A089547
:103520001F93CF93DF931F92CDB7DEB7162F61E0C5
:10353000812F49830E94400F4981413011F461E09D
:1035400003C0411108C060E0812F0F90DF91CF913F
:103550001F910C94590F0F90DF91CF911F910895F7
:1035600061E087E10E94400F61E084E20E94400F29
:1035700061E085E20E94400F61E087E10E94590FFF
:1035800061E084E20E94590F61E085E20C94590FDA
:1035900061E087E10E94400F61E08BE00E94400FF4
:1035A00061E087E10E94590F60E08BE00C94590FB5
:1035B00061E087E10E94400F61E08BE00E94400FD4
:1035C00061E087E10E94590F61E08BE00C94590F94
:1035D000CB010C94A82B8F929F92AF92BF92CF9267
:1035E000DF92EF92FF920F931F93CF93DF93CDB7AC
:1035F000DEB7C75FD1090FB6F894DEBF0FBECDBFEF
:103600008E0100511F4F580128E0A20EB11C7E010F
:1036100081E8E80EF11CCC24C394D12CCC0EDD1E25
:103620006DE0CE018F519F4F0E94B21D40E06CE0D3
:1036300085E29AE00E94901A40E06DE085E29AE00F
:103640000E94901AF801108211821282138261E0A6
:103650008CE00E94400F61E08CE00E94590FCE0187
:103660008F519F4F0E94921C41E06DE085E29AE0ED
:103670000E94901A6AE070E080E090E00E94370EAD
:1036800040E063E3CE018F519F4F0E94631D62E3D0
:1036900070E080E090E00E94370E4701CE018F512C
:1036A0009F4F0E94381DF2E08F1A9108F401808329
:1036B000118261E070E080E090E00E94370E8C148F
:1036C0009D0461F7FE017196D701C60180599F4F95
:1036D000219131912D933D93E817F907C9F731EE08
:1036E000832E912C8C0E9D1E81E090E0A0E0B0E036
:1036F000F401329122914F012130310569F4F80132
:103700004081518162817381480F591F6A1F7B1F5D
:103710004083518362837383880F991FAA1FBB1F45
:103720008E149F0429F7F80180819181A281B381D1
:103730008F3F9F4FAF4FBF4F29F4F8011082118286
:103740001282138260E08CE00E94590F40E06CE02E
:1037500085E29AE00E94901A40E06DE085E29AE0EE
:103760000E94901A0C5F1F4F0A151B0509F058CFD5
:10377000C051DF4F088119812A813B81C05FD04051
:10378000CC50DF4F88819981AA81BB81C45FD04032
:10379000081719072A073B0719F000E010E0980105
:1037A000B801C901C950DF4F0FB6F894DEBF0FBE94
:1037B000CDBFDF91CF911F910F91FF90EF90DF90E0
:1037C000CF90BF90AF909F908F900895CF92DF924F
:1037D000EF92FF920E94EB1A6B017C01611571055B
:1037E0008105910591F483EE90E00E94B02B6A3040
:1037F0002AE072078207920741F06F3F2FEF7207AE
:103800008207920711F06B017C01B601C701FF909E
:10381000EF90DF90CF9008958FED90E00E94A82B5D
:103820008F3F09F480E0089510922B0A82E0809384
:10383000270A8CE180932C0A80EC91E090932E0A69
:1038400080932D0A08951F93CF93DF931F92CDB7D6
:10385000DEB7162F61E08AE149830E94400F61E0E4
:1038600088E10E94400F4981112321F0113009F0B5
:1038700048C020C041110EC061E08AE10E94590F8A
:103880008091CB109091CC10A091CD10B091CE1022
:1038900082602FC04130A9F560E08AE10E94590F93
:1038A0008091CB109091CC10A091CD10B091CE1002
:1038B0008D7F1FC041110EC061E088E10E94590F49
:1038C0008091CB109091CC10A091CD10B091CE10E2
:1038D00081600FC04130A9F460E088E10E94590F77
:1038E0008091CB109091CC10A091CD10B091CE10C2
:1038F0008E7F8093CB109093CC10A093CD10B0937B
:10390000CE100F90DF91CF911F91089561E089E271
:103910000E94400F61E088E20E94400F85E79CE032
:103920000C94D824CF92DF92EF92FF921F93CF9303
:10393000DF93EC0160E08E850E94400F0E94E50D50
:103940006B017C011EE7115089F182E090E00E943A
:10395000610E0E94E50D6C157D058E059F0520F416
:103960000E94E50D6B017C018E850E949F0F892BC3
:10397000F9F40E94E50D6C197D098E099F09643FD9
:10398000714081059105F8F213C00E94E50D6B01AD
:103990007C011130C1F10E94E50D6C197D098E0981
:1039A0009F09643F714081059105D0F010E02BC064
:1039B00061E08E850E94400F60E08E850E94590F65
:1039C00084E591E00E94610E0E94E50D6B017C018F
:1039D0008E850E949F0F11E0892BD9F210E0D9CF7C
:1039E0008E850E949F0F11E0892B09F010E089E07D
:1039F00090E00E94610E0E94E50D6C157D058E051C
:103A00009F0538F6C2CF812FDF91CF911F91FF9094
:103A1000EF90DF90CF9008951F93CF93DF93FC0139
:103A20001081C181D281912F9095F8948A81892348
:103A30008A838981812B898360FF0BC089E090E0B4
:103A40000E94610E8A81812B8A8378948FE290E0B4
:103A50000AC087E390E00E94610E8A81812B8A83ED
:103A6000789485E090E0DF91CF911F910C94610EE6
:103A70000F931F93CF93DF93FC011081C181D281FB
:103A8000F8948981812B89838A81012F0095802375
:103A90008A8382E090E00E94610E8981802389837D
:103AA00087E090E00E94610EC88178948DE290E0FA
:103AB0000E94610E1C2381E009F480E0DF91CF9128
:103AC0001F910F910895CF92DF92EF92FF920F9383
:103AD0001F93CF93DF931F92CDB7DEB76C01E62E15
:103AE00008E010E0FF24F3949F2D9E2161E009F48B
:103AF00060E0C60149830E940C1DFF0C01501109B2
:103B000049810115110581F7411115C0F894D601BD
:103B10001196ED91FC91129791818C91809589235A
:103B200081831196ED91FC91129792818C918095F1
:103B30008923828378940F90DF91CF911F910F9109
:103B4000FF90EF90DF90CF900895FC0113861586CB
:103B500014861286118610861782168215821482A8
:103B600013820895CF93DF93EC01862F6E8760E078
:103B70000E94400F8E8590E0FC01E45DF44FE491DB
:103B8000E883FC01E15AF44FE491F0E0EE56F44F83
:103B9000E491E9831A82CE01DF91CF910C94A51DA7
:103BA000FC01128A118E138EDC01A356BE4F89E1EF
:103BB00011968C93119714961C92DF01AE55BE4F4F
:103BC0001C9212961C92E956FE4F118210820895A3
:103BD00081E39AE00C94D01DCF92DF92EF92FF9296
:103BE0006B017C01411134C088E00E94DE0EC701E8
:103BF000B60122E030E040E050E00E94C227305F92
:103C0000414F5F4FCA01B901A70196010E94C22727
:103C1000DA01C9010197A109B109892F9A2FAB2FA8
:103C2000BB27A7FDBA958093C50021502093C400FF
:103C30008091C10080618093C1008091C100886043
:103C40008093C1008091C10080688093C10033C01F
:103C500080E10E94DE0EC701B60122E030E040E0C4
:103C600050E00E94C227305F414F5F4FCA01B90147
:103C7000A70196010E94C227DA01C9010197A10993
:103C8000B109892F9A2FAB2FBB27A7FDBA95809337
:103C9000CD0021502093CC008091C9008061809399
:103CA000C9008091C90088608093C9008091C900D3
:103CB00080688093C900FF90EF90DF90CF900895C7
:103CC00081110EC088E00E94180F8091C1008F7E84
:103CD0008093C1008091C100877F8093C1000895C7
:103CE00080E10E94180F8091C9008F7E8093C900E7
:103CF0008091C900877F8093C9000895611107C032
:103D00009091C00095FFFCCF8093C60008959091DC
:103D1000C80095FFFCCF8093CE00089581110AC0A2
:103D20008091F30B9091F40B9E5F2091F10B3091F9
:103D3000F20B09C08091EF0B9091F00B9E5F2091E8
:103D4000ED0B3091EE0B821B930B60E072E00E9452
:103D50008C270895811119C08091F10B9091F20B7D
:103D60002091F30B3091F40B2817390741F1FC0136
:103D7000E553F14F2081019660E072E00E948C27AC
:103D80009093F20B8093F10B18C08091ED0B909102
:103D9000EE0B2091EF0B3091F00B2817390779F0DB
:103DA000FC01E553F34F2081019660E072E00E9430
:103DB0008C279093EE0B8093ED0B30E002C02FEF39
:103DC0003FEFC9010895811109C01092F20B1092C2
:103DD000F10B1092F40B1092F30B08951092EE0B6E
:103DE0001092ED0B1092F00B1092EF0B08951F92B2
:103DF0000F920FB60F9211242F933F934F935F931F
:103E00006F937F938F939F93AF93BF93EF93E091C3
:103E1000C6002091F30B3091F40BC901019660E0CC
:103E200072E00E948C274091F10B5091F20B8417A5
:103E3000950741F0D901A553B14FEC939093F40B42
:103E40008093F30BEF91BF91AF919F918F917F91F1
:103E50006F915F914F913F912F910F900FBE0F90F7
:103E60001F9018951F920F920FB60F9211242F9347
:103E70003F934F935F936F937F938F939F93AF93F2
:103E8000BF93EF93E091CE002091EF0B3091F00BB8
:103E9000C901019660E072E00E948C274091ED0B11
:103EA0005091EE0B8417950741F0D901A553B34FFC
:103EB000EC939093F00B8093EF0BEF91BF91AF9148
:103EC0009F918F917F916F915F914F913F912F9132
:103ED0000F900FBE0F901F9018950C947E1ECF93DD
:103EE000C82F682F8DE00E947E1E6C2F8AE0CF9134
:103EF0000C947E1E1F93CF93DF93162FEC0103C00B
:103F0000612F0E947E1E89918111FACFDF91CF919E
:103F10001F9108954F925F926F927F928F929F921E
:103F2000AF92BF92CF92DF92EF92FF920F93CF9317
:103F3000DF93CDB7DEB7A0970FB6F894DEBF0FBE04
:103F4000CDBF29013A016115710581059105C9F4BB
:103F5000602F80E3A0960FB6F894DEBF0FBECDBFF2
:103F6000DF91CF910F91FF90EF90DF90CF90BF90B6
:103F7000AF909F908F907F906F905F904F900C9438
:103F80007E1EEE24E394F12CEC0EFD1E812C912C70
:103F90005401A30192010E94A027F70161937F01C0
:103FA000FFEF8F1A9F0AAF0ABF0AB901CA01611554
:103FB00071058105910569F7CC24CA94DC2C760142
:103FC000C80CD91CEA1CFB1C14C0E1E0F0E0EC0FAB
:103FD000FD1FEC0DFD1D80818A3010F4805D01C055
:103FE000895C602F0E947E1E81E0C81AD108E1081A
:103FF000F108EFEFCE16DE06EE06FE0631F7A096CC
:104000000FB6F894DEBF0FBECDBFDF91CF910F91F9
:10401000FF90EF90DF90CF90BF90AF909F908F90E8
:104020007F906F905F904F900895CF92DF92EF92C4
:10403000FF920F936B017C01042F97FF0CC0642F3C
:104040008DE20E947E1EF094E094D094C094C11C36
:10405000D11CE11CF11C2AE030E040E050E0C70137
:10406000B6010E948A1F0F91FF90EF90DF90CF90D2
:1040700008951092FE0BE4E6F0E080818F77808354
:10408000589A599AE9EBF0E080818E7F8083808195
:104090008D7F808381E48093B80085E48093BC00A9
:1040A00080E2EFEFFBE0DF01982F1D929A95E9F790
:1040B000EFE1FCE0DF01982F1D929A95E9F7EFE31D
:1040C000FCE0DF011D928A95E9F70895613298F4CA
:1040D0002091FE0B243089F46093FB0BFC018FE1EF
:1040E0009CE0DC0102C021912D932A2F281B26176A
:1040F000D0F380E0089581E0089582E0089585EC92
:104100008093BC001092FE0B0895589859988091A6
:10411000B90081608093B9008091B900826080937A
:10412000B9008091BC0080688093BC008091BC0085
:1041300080618093BC008091BC008F7B8093BC0029
:104140008091BC008F7D8093BC008091BC00877FF4
:104150008093BC008091CB109091CC10A091CD1099
:10416000B091CE1086FD14C08091CB109091CC10F0
:10417000A091CD10B091CE1090FD0AC08091CB10CF
:104180009091CC10A091CD10B091CE1093FF04C0AF
:104190008091BC008B7F03C08091BC0084608093C1
:1041A000BC008091BC008E7F8093BC008091640035
:1041B0008068809364000895882349F01092F50B7D
:1041C0001092F60B1092F70B1092F80B13C080911F
:1041D000F50B9091F60BA091F70BB091F80B0196AF
:1041E000A11DB11D8093F50B9093F60BA093F70BD7
:1041F000B093F80B8091F50B9091F60BA091F70B13
:10420000B091F80B803A9648A140B10560F0109249
:10421000F50B1092F60B1092F70B1092F80B0E9410
:10422000392081E0089580E0089585ED8093BC00F9
:1042300081E00E94DC2008C080E00E94DC2088230E
:1042400019F01092FE0B08958091BC0084FDF4CF0C
:10425000F8CFFF920F931F93CF93DF93182F062F62
:10426000F72EC42FD22F81E0413208F051C00E94B6
:10427000DC2015C080E00E94DC20882381F082E0F1
:104280008093FE0B8FEF8093F90B1092FD0BC09380
:104290005F0CE02FFF2D6FEF7BE0DB0107C080910B
:1042A000FE0B8111E7CFEBCF81918D938A2F861B77
:1042B0008C17D0F3812F90E0880F991F8093600CAA
:1042C00085EE8093BC0081E00E94DC20D11105C006
:1042D0008091F90B8F3F59F414C08091FE0B82300E
:1042E000B9F780E00E94DC2081110DC0F6CF8091EB
:1042F000F90B803251F08091F90B803341F483E067
:1043000007C080E005C085E003C082E001C084E012
:10431000DF91CF911F910F91FF9008950F931F93FD
:10432000CF93DF93082FD62F172FC42F81E0413270
:10433000E0F50E94DC201DC080E00E94DC20882384
:10434000C1F081E08093FE0B8FEF8093F90B109208
:10435000FD0BC0935F0C802F90E0880F991F816048
:104360008093600C85EE8093BC0081E00E94DC208D
:1043700010C08091FE0B8111DFCFE3CF80E00E945F
:10438000DC20882331F08FEF9BE0ED2FF12FDC0153
:1043900007C08091FE0B813089F3F5CF2D912193D9
:1043A0002A2F281B2C17D0F380E0DF91CF911F918B
:1043B0000F9108951F920F920FB60F9211240BB612
:1043C0000F922F933F934F935F936F937F938F93AE
:1043D0009F93AF93BF93CF93EF93FF93C091B90097
:1043E000C87FC03609F49FC058F5C83209F45BC0D5
:1043F00090F4C03109F452C038F4CC2309F4F2C06F
:10440000C83009F0F3C04AC0C83109F44CC0C0320A
:1044100009F0ECC05DC0C03409F473C038F4C03397
:1044200009F45BC0C83309F0E1C05AC0C03509F4D3
:104430005CC0C83509F46AC0C83409F0D7C0D4C01C
:10444000C83909F4C5C0A8F4C83709F46CC038F4F9
:10445000C83609F468C0C03709F0C8C064C0C8389D
:1044600009F4B6C0C03909F464C0C03809F0BEC050
:1044700060C0C03B09F484C038F4C03A09F46BC092
:10448000C83A09F0B3C07CC0C03C09F4A5C0C83C20
:1044900009F4A2C0C83B09F0A9C087C08091600C94
:1044A0008093BB0013C09091FD0B80915F0C981717
:1044B00008F09AC08091FD0BE82FF0E0E150F44F36
:1044C00090819093BB008F5F8093FD0B85EC81C042
:1044D0000E941521C093F90B89C0C093F90B84C0C9
:1044E000C093F90B0E947F2081C08091FD0B9091B9
:1044F000BB00E82FF0E0E150F44F90838F5F809392
:10450000FD0B9091FD0B80915F0C5FC08091FD0BC6
:104510009091BB00E82FF0E0E150F44F90838F5F63
:104520008093FD0B61C083E08093FE0B1092FA0B29
:10453000CDCF8091FA0B803208F04AC08091FA0BFF
:104540009091BB00E82FF0E0E15CF34F90838F5F28
:104550008093FA0BBBCF8091FA0B803230F4E0915C
:10456000FA0BF0E0E15CF34F10826091FA0BE091FE
:10457000610CF091620C70E08FE39CE009952CC017
:1045800084E08093FE0B1092FC0B1092FB0BE091E9
:10459000630CF091640C09958091FB0B811105C0AF
:1045A00081E08093FB0B10921F0C8091FC0BE82F95
:1045B000F0E0E15EF34F90819093BB008F5F8093BA
:1045C000FC0B9091FC0B8091FB0B981708F47ECFAD
:1045D00085E88093BC000AC085EC8093BC001092F3
:1045E000FE0B04C01092F90B0E941521FF91EF9170
:1045F000CF91BF91AF919F918F917F916F915F917B
:104600004F913F912F910F900BBE0F900FBE0F90C7
:104610001F9018951F920F920FB60F9211240BB690
:104620000F922F933F934F935F936F937F938F934B
:104630009F93AF93BF93EF93FF938091650C9091FD
:10464000660C892B29F0E091650CF091660C0995B8
:10465000FF91EF91BF91AF919F918F917F916F915A
:104660005F914F913F912F910F900BBE0F900FBE16
:104670000F901F9018951F920F920FB60F92112452
:104680000BB60F922F933F934F935F936F937F934C
:104690008F939F93AF93BF93EF93FF938091670C9A
:1046A0009091680C892B29F0E091670CF091680CCF
:1046B0000995FF91EF91BF91AF919F918F917F915C
:1046C0006F915F914F913F912F910F900BBE0F9083
:1046D0000FBE0F901F9018951F920F920FB60F925A
:1046E00011240BB60F922F933F934F935F936F93C9
:1046F0007F938F939F93AF93BF93EF93FF9380919B
:10470000690C90916A0C892B29F0E091690CF09169
:104710006A0C0995FF91EF91BF91AF919F918F9195
:104720007F916F915F914F913F912F910F900BBEB1
:104730000F900FBE0F901F9018951F920F920FB6FB
:104740000F9211240BB60F922F933F934F935F93C9
:104750006F937F938F939F93AF93BF93EF93FF9349
:1047600080916B0C90916C0C892B29F0E0916B0C73
:10477000F0916C0C0995FF91EF91BF91AF919F91D2
:104780008F917F916F915F914F913F912F910F90FA
:104790000BBE0F900FBE0F901F9018951F920F9297
:1047A0000FB60F9211240BB60F922F933F934F9396
:1047B0005F936F937F938F939F93AF93BF93EF9389
:1047C000FF9380916D0C90916E0C892B29F0E091F4
:1047D0006D0CF0916E0C0995FF91EF91BF91AF9127
:1047E0009F918F917F916F915F914F913F912F9109
:1047F0000F900BBE0F900FBE0F901F9018951F9239
:104800000F920FB60F9211240BB60F922F933F9376
:104810004F935F936F937F938F939F93AF93BF93C8
:10482000EF93FF9380916F0C9091700C892B29F07E
:10483000E0916F0CF091700C0995FF91EF91BF9191
:10484000AF919F918F917F916F915F914F913F9128
:104850002F910F900BBE0F900FBE0F901F901895C9
:104860001F920F920FB60F9211240BB60F922F9337
:104870003F934F935F936F937F938F939F93AF93E8
:10488000BF93EF93FF938091710C9091720C892BE1
:1048900029F0E091710CF091720C0995FF91EF9164
:1048A000BF91AF919F918F917F916F915F914F9148
:1048B0003F912F910F900BBE0F900FBE0F901F9046
:1048C00018951F920F920FB60F9211240BB60F92EC
:1048D0002F933F934F935F936F937F938F939F9308
:1048E000AF93BF93EF93FF938091730C9091740CEF
:1048F000892B29F0E091730CF091740C0995FF91CC
:10490000EF91BF91AF919F918F917F916F915F9147
:104910004F913F912F910F900BBE0F900FBE0F90B4
:104920001F901895CF93DF93EC0180E2E3EAFCE05F
:10493000DF01982F1D929A95E9F71092A20C109220
:10494000A10CE0E8FCE0DF011D928A95E9F71092E6
:104950007F0C10927E0C0E94392081E08E8384E0CF
:1049600090E0DF91CF910C94610E81E080937D0CFB
:104970006093A00C10927F0C10927E0C08950C9402
:10498000B5248091A10C9091A20C891B089590915F
:10499000A20C8091A10C981748F4E92FF0E0ED5596
:1049A000F34F80819F5F9093A20C089580E008955B
:1049B000CF93DF93EC010E9485201E82DF91CF917F
:1049C00008954091CB105091CC106091CD10709112
:1049D000CE104170FC0140834091CB105091CC101F
:1049E0006091CD107091CE1076956795579547954B
:1049F000417041838091CB109091CC10A091CD104B
:104A0000B091CE1084FD49C08091CB109091CC1014
:104A1000A091CD10B091CE1085FD3FC08091CB10FC
:104A20009091CC10A091CD10B091CE1086FD35C0E4
:104A30008091CB109091CC10A091CD10B091CE1060
:104A400087FD2BC08091CB109091CC10A091CD1000
:104A5000B091CE1090FD21C08091CB109091CC10E0
:104A6000A091CD10B091CE1091FD17C08091CB10C8
:104A70009091CC10A091CD10B091CE1093FD0DC0AF
:104A8000089540E060E08FE29AE00E94231C40E03D
:104A900061E08FE29AE00C94231C80917C0C8823C7
:104AA00081F30895CF93DF93EC018091CB10909127
:104AB000CC10A091CD10B091CE1084FD58C0809143
:104AC000CB109091CC10A091CD10B091CE1085FD5F
:104AD0004EC08091CB109091CC10A091CD10B09190
:104AE000CE1086FD44C08091CB109091CC10A09147
:104AF000CD10B091CE1087FD3AC08091CB1090912F
:104B0000CC10A091CD10B091CE1090FD30C040914E
:104B1000CB105091CC106091CD107091CE1051FD02
:104B200026C04091CB105091CC106091CD10709167
:104B3000CE1053FD1CC020C041E060E08FE29AE03F
:104B40000E94231C0CC08981811106C041E060E0F5
:104B50008FE29AE00E94231C888181110DC041E000
:104B600061E08FE29AE0DF91CF910C94231C809159
:104B70007C0C8111E8CFE0CFDF91CF910895CF93E6
:104B8000DF931F92CDB7DEB7698380917D0C8823B8
:104B900089F080917E0C8032D0F480917F0CE82FD8
:104BA000F0E0E058F34F60838F5F80937F0C809339
:104BB0007E0C0DC085E79CE00E94E12461E0CE01FF
:104BC00001960E94662085E79CE00E9452250F9086
:104BD000DF91CF9108950C94BF25CF9385E79CE09A
:104BE0000E94E12421E040917E0C60E87CE080910D
:104BF000A00C0E942921C82F10927F0C10927E0CCD
:104C000010927D0C85E79CE00E9452258C2FCF915D
:104C10000895CF93DF93D62FC42F85E79CE00E94A1
:104C2000E124C13208F0C0E24C2F63EA7CE08D2F12
:104C30000E948E21D82F1092A20CC093A10C85E760
:104C40009CE00E9452258D2FDF91CF9108950C9406
:104C5000092610927C0C1092750C1092760C8AEF3B
:104C600090E0A0E0B0E08093770C9093780CA09354
:104C7000790CB0937A0C089598D088F09F5790F0F3
:104C8000B92F9927B751A0F0D1F0660F771F881F71
:104C9000991F1AF0BA95C9F712C0B13081F09FD0B0
:104CA000B1E008959CC0672F782F8827B85F39F04E
:104CB000B93FCCF3869577956795B395D9F73EF4D0
:104CC00090958095709561957F4F8F4F9F4F089578
:104CD000E89409C097FB3EF4909580957095619596
:104CE0007F4F8F4F9F4F9923A9F0F92F96E9BB274C
:104CF0009395F695879577956795B795F111F8CFC8
:104D0000FAF4BB0F11F460FF1BC06F5F7F4F8F4F32
:104D10009F4F16C0882311F096E911C0772321F028
:104D20009EE8872F762F05C0662371F096E8862FC0
:104D300070E060E02AF09A95660F771F881FDAF717
:104D4000880F9695879597F9089597F99F6780E85A
:104D500070E060E008959FEF80EC089500240A94CD
:104D60001616170618060906089500240A94121646
:104D70001306140605060895092E0394000C11F479
:104D8000882352F0BB0F40F4BF2B11F460FF04C026
:104D90006F5F7F4F8F4F9F4F089557FD9058440F7F
:104DA000551F59F05F3F71F04795880F97FB991F8A
:104DB00061F09F3F79F08795089512161306140647
:104DC000551FF2CF4695F1DF08C0161617061806D4
:104DD000991FF1CF86957105610508940895E894AF
:104DE000BB2766277727CB0197F908950BD0C4CF4F
:104DF000B5DF28F0BADF18F0952309F0A6CFABCFC6
:104E00001124EECFCADFA0F3959FD1F3950F50E0A8
:104E1000551F629FF001729FBB27F00DB11D639F6C
:104E2000AA27F00DB11DAA1F649F6627B00DA11D12
:104E3000661F829F2227B00DA11D621F739FB00DB8
:104E4000A11D621F839FA00D611D221F749F332728
:104E5000A00D611D231F849F600D211D822F762FC1
:104E60006A2F11249F5750408AF0E1F088234AF0BE
:104E7000EE0FFF1FBB1F661F771F881F915050400A
:104E8000A9F79E3F510570F060CFAACF5F3FECF3CA
:104E9000983EDCF3869577956795B795F795E795F6
:104EA0009F5FC1F7FE2B880F911D9695879597F907
:104EB0000895A29FB001B39FC001A39F01D0B29FEC
:104EC000700D811D1124911D08950E945927A59FE1
:104ED000900DB49F900DA49F800D911D11240895F5
:104EE000B7FF0C9465270E946527821B930B0895DA
:104EF000AA1BBB1B51E107C0AA1FBB1FA617B70700
:104F000010F0A61BB70B881F991F5A95A9F780951B
:104F10009095BC01CD01089597FB072E16F40094DF
:104F200007D077FD09D00E94782707FC05D03EF412
:104F3000909581959F4F0895709561957F4F089545
:104F4000A1E21A2EAA1BBB1BFD010DC0AA1FBB1F8D
:104F5000EE1FFF1FA217B307E407F50720F0A21BFF
:104F6000B30BE40BF50B661F771F881F991F1A946C
:104F700069F760957095809590959B01AC01BD0196
:104F8000CF010895052E97FB16F4009407D057FD26
:104F90000DD00E94A02707FC09D07EF49095809543
:104FA000709561957F4F8F4F9F4F08955095409515
:104FB000309521953F4F4F4F5F4F0895689401C042
:104FC000E8948F929F92CF93DF930E94EC27DF911A
:104FD000CF919F908F90089588249924F401E40143
:104FE000B0E49F93AA279A158B049C04ED05FE0557
:104FF000CF05D007A10798F4AD2FDC2FCF2FFE2FC0
:10500000E92D982C892E982F872F762F652F542FD6
:10501000432F322F2227B85031F7BF9127C01B2EC4
:10502000BF91BB27220F331F441F551F661F771FD9
:10503000881F991F881C991CEE1FFF1FCC1FDD1FA6
:10504000AA1FBB1F8A149B04EC05FD05CE05DF05D6
:10505000A007B10748F08A189B08EC09FD09CE09A2
:10506000DF09A00BB10B21601A94E1F62EF4940134
:10507000AF01BE01CD01000C08950F930F7351F0E5
:10508000220F331F441F551F661F771F881F991F4C
:105090000A95B1F70F9108952A0D3B1D4C1D5D1D1A
:1050A0006E1D7F1D801F911F08950790F691E02DC2
:1050B00009948F929F92AF92BF92CF92DF92EF921C
:1050C000FF92CF93DF93EC01688179818A819B8184
:1050D000611571058105910521F464E279ED8BE597
:1050E00097E02DE133EF41E050E00E94C2274901F3
:1050F0005A019B01AC01A7EAB1E40E9465276B014C
:105100007C01ACEEB4EFA50194010E947327C60E9A
:10511000D71EE81EF91EF7FE06C081E0C81AD108A6
:10512000E10880E8F80AC882D982EA82FB82E89422
:10513000D7F8EE24FF24C601DF91CF91FF90EF90C6
:10514000DF90CF90BF90AF909F908F9008950C9478
:10515000592886E092E00C945928A0E0B0E08093B2
:10516000060290930702A0930802B09309020895E3
:10517000FC0188279927E89421912032E9F329300E
:1051800010F02E30C8F32B3241F02D3239F46894F0
:1051900004C00E942F29820F911D219120532A3093
:1051A000C0F31EF4909581959F4F0895FB01DC019B
:1051B00005900D920020E1F7089540EF53E00C9424
:1051C0000829FB01DC0104C08D910190801921F4B4
:1051D00041505040C8F7881B990B0895FB01DC0132
:1051E0000D900020E9F7119701900D920020E1F752
:1051F0000895FB01DC014150504048F001900D92B0
:105200000020C9F701C01D9241505040E0F70895B9
:10521000FA01A191B081009719F41097E1F0CD0146
:10522000DC01CD010D90002011F4C00113C0FB0181
:105230002191222319F02015D9F7F3CFFB012191F9
:10524000201519F41E92119606C02223C1F70D9065
:105250000020A1F7D001FA01A193B08308957AE06C
:10526000979F902D879F802D910D112408950F9366
:105270001F93CF93DF93CDB7DEB72E970FB6F89479
:10528000DEBF0FBECDBF0D891E898F89988D26E0A8
:105290002C831A83098397FF02C080E090E801976E
:1052A0009E838D83CE014B96AC01698D7A8DCE01A4
:1052B00001960E94A3294D815E8157FD0AC02F816E
:1052C0003885421753070CF49A01F801E20FF31FD7
:1052D00010822E960FB6F894DEBF0FBECDBFDF91C1
:1052E000CF911F910F9108950F931F93CF93DF9349
:1052F000CDB7DEB72E970FB6F894DEBF0FBECDBF89
:105300000D891E898EE08C831A8309838FEF9FE7B6
:105310009E838D83CE014996AC016F89788DCE0135
:1053200001960E94A329EF81F885E00FF11F1082FA
:105330002E960FB6F894DEBF0FBECDBFDF91CF9192
:105340001F910F9108952F923F924F925F926F920B
:105350007F928F929F92AF92BF92CF92DF92EF9205
:10536000FF920F931F93CF93DF93CDB7DEB72C97A8
:105370000FB6F894DEBF0FBECDBF7C016B018A0172
:10538000FC0117821682838181FFC6C18824839421
:10539000912C8C0E9D1EF7019381F60193FD859152
:1053A00093FF81916F01882309F4B2C1853239F4EA
:1053B00093FD859193FF81916F01853229F4B701A7
:1053C00090E00E94DA2BE7CF512C312C20E02032E4
:1053D000A8F48B3261F028F4803251F0833271F4FA
:1053E0000BC08D3239F0803349F4216028C022602F
:1053F000246025C0286023C0206121C027FD27C06C
:10540000382F30533A3078F426FF06C0FAE05F9E1A
:10541000300D1124532E13C08AE0389E300D112414
:10542000332E20620CC08E3221F426FD71C120641F
:1054300006C08C3611F4206802C0883641F4F601AB
:1054400093FD859193FF81916F018111C0CF982FBA
:105450009554933018F09052933028F40C5F1F4FFE
:10546000FFE3F9830DC0833631F0833771F0833564
:1054700009F05EC023C0F801808189830E5F1F4F51
:1054800044244394512C540115C03801F2E06F0EAE
:10549000711CF801A080B18026FF03C0652D70E06B
:1054A00002C06FEF7FEFC5012C870E94CF2B2C012C
:1054B00083012C856FE7262E222218C03801F2E0E6
:1054C0006F0E711CF801A080B18026FF03C0652D0E
:1054D00070E002C06FEF7FEFC5012C870E94C42BE4
:1054E0002C012C8550E8252E222A830123FC1CC088
:1054F00006C0B70180E290E00E94DA2B3A94832D37
:1055000090E048165906A8F30FC0F50127FC8591D5
:1055100027FE81915F01B70190E00E94DA2B3110E4
:105520003A94F1E04F1A51084114510471F7EDC05B
:10553000843611F0893641F5F80127FF07C06081F4
:105540007181828193810C5F1F4F08C060817181DE
:10555000882777FD8095982F0E5F1F4F4FE6B42E5A
:10556000B22297FF09C090958095709561957F4F05
:105570008F4F9F4FF0E8BF2A2AE030E0A4010E943D
:10558000062CA82EA81843C0853731F43FEEB32E61
:10559000B2222AE030E024C099EFB92EB2228F3631
:1055A000B9F020F4883509F0B3C00DC0803721F080
:1055B000883709F0ADC002C020E1B22AB4FE0BC0AA
:1055C00084E0B82A08C024FF09C0E6E0BE2A06C06D
:1055D00028E030E005C020E130E002C020E132E008
:1055E000F801B7FE07C060817181828193810C5FF1
:1055F0001F4F06C06081718180E090E00E5F1F4FF9
:10560000A4010E94062CA82EA818FFE7BF22B6FE10
:105610000BC02B2D2E7FA51450F4B4FE0AC0B2FC93
:1056200008C02B2D2E7E05C07A2C2B2D03C07A2C82
:1056300001C0752C24FF0DC0FE01EA0DF11D808113
:10564000803311F4297E09C022FF06C0739473943D
:1056500004C0822F867809F0739423FD14C020FFC4
:105660000FC05A2C731460F4530C5718732C08C0D5
:10567000B70180E290E02C870E94DA2B73942C858E
:105680007314B0F304C0731410F4371801C0312C34
:1056900024FF12C0B70180E390E02C870E94DA2B30
:1056A0002C8522FF1EC021FF03C088E590E002C0C8
:1056B00088E790E0B7010CC0822F867891F021FD39
:1056C00002C080E201C08BE227FD8DE2B70190E0CD
:1056D0000E94DA2B06C0B70180E390E00E94DA2B2B
:1056E0005A94A514C0F3AA94F401EA0DF11DB70170
:1056F000808190E00E94DA2BA110F5CF06C0B7019F
:1057000080E290E00E94DA2B3A943110F8CF43CE39
:10571000F7012681378102C02FEF3FEFC9012C9698
:105720000FB6F894DEBF0FBECDBFDF91CF911F91B2
:105730000F91FF90EF90DF90CF90BF90AF909F9030
:105740008F907F906F905F904F903F902F90089533
:10575000F999FECF92BD81BDF89A992780B5089539
:10576000A6E1B0E044E050E00C94662C262FF999B5
:10577000FECF1FBA92BD81BD20BD0FB6F894FA9A34
:10578000F99A0FBE01960895FC0105906150704092
:105790000110D8F7809590958E0F9F1F0895FC01FA
:1057A0006150704001900110D8F7809590958E0F50
:1057B0009F1F08950F931F93CF93DF938C01EB01ED
:1057C0008B8181FD03C00FEF1FEF1AC082FF0DC058
:1057D0002E813F818C819D812817390764F4E881EF
:1057E000F9810193F983E88306C0E885F985802F64
:1057F0000995892B41F78E819F8101969F838E8326
:10580000C801DF91CF911F910F910895FA01AA2746
:10581000283051F1203181F1E8946F936E7F6E5FF3
:105820007F4F8F4F9F4FAF4FB1E03ED0B4E03CD0A1
:10583000670F781F891F9A1FA11D680F791F8A1F84
:10584000911DA11D6A0F711D811D911DA11D20D0EB
:1058500009F468943F912AE0269F11243019305DA5
:105860003193DEF6CF010895462F4770405D419396
:10587000B3E00FD0C9F7F6CF462F4F70405D4A33E3
:1058800018F0495D31FD4052419302D0A9F7EACFAB
:10589000B4E0A6959795879577956795BA95C9F7DA
:1058A00000976105710508959B01AC010A2E0694CD
:1058B0005795479537952795BA95C9F7620F731F86
:1058C000841F951FA01D0895DC01CB01FC01F999EF
:1058D000FECF06C0F2BDE1BDF89A319600B40D923C
:0C58E00041505040B8F70895F894FFCFF5
:1058EC000000DD10200001000000033031303230A8
:1058FC003330343035303630373038303931303170
:10590C00313132313331343135313600303130329E
:10591C003033303430353036303730380031463172
:10592C003231333134313531363137313800014A87
:10593C004F494E544F5441413A2076657273696F0A
:10594C006E206572726F72004A4F494E544F54412B
:10595C00413A20696E707574206572726F72004ADC
:10596C004F494E544F5441413A206E6F74206A6F28
:10597C00696E6564004A4F494E544F5441413A2078
:10598C0053656E64696E67206572726F72004A4F60
:10599C00494E544F5441413A204572726F722077F0
:1059AC006974682064617461206C656E677468004A
:1059BC004A4F494E544F5441413A20696E69742004
:1059CC006572726F72004A4F494E544F5441413ABE
:1059DC00204D6F64756C65206469646E2774207249
:1059EC006573706F6E7365004A4F494E544F544146
:1059FC00413A204D6F64756C6520616E73776572EA
:105A0C00206572726F72004A4F494E544F54414197
:105A1C003A204D6573736167652073656E74004D34
:105A2C006F64756C65206861736E2774206A6F698A
:105A3C006E65642061206E6574776F726B004572C1
:105A4C00726F7220776974682064617461206C6570
:105A5C006E677468092020004D6F64756C65206357
:105A6C006F6D6D756E69636174696F6E20657272AE
:105A7C006F722020200074656D70203A256400340C
:105A8C003333003836380039303000200D0A006FBF
:105A9C006666002E0D0A0025730053756E004D6F5F
:105AAC006E00547565005765640054687500467245
:105ABC00690053617400496E76616C696420474DCE
:105ACC00542076616C7565003A3A3A3A3A3A0000DD
:00000001FF
